:100000000C94CE000C94F6000C94F6000C94F600C0
:100010000C94F6000C94F6000C94F6000C94F60088
:100020000C94F6000C94F6000C94F6000C94F60078
:100030000C94F6000C94F6000C94F6000C94F60068
:100040000C943E0D0C94F6000C9424100C94FE0FAE
:100050000C94F6000C94F6000C94F6000C94F60048
:100060000C94A50B0C94F600A6056F045A047D04AD
:1000700077047304160446040000000025002800DD
:100080002B00040404040404040402020202020219
:10009000030303030303010204081020408001024C
:1000A00004081020010204081020000000080002CB
:1000B0000100000304070000000000000000737549
:1000C000636365737300726573756C7400696400B3
:1000D0006572726F725F6D657373616765006661EB
:1000E000696C75726500696400556E6B6E6F776E32
:1000F00020636F6D6D616E642E003C756E6B6E6F6C
:10010000776E206C6F636174696F6E3E004E6F2076
:1001100054534C323539312073656E736F722066DB
:100120006F756E642E20436865636B207769726912
:100130006E672E0074736C323539310073656E73DF
:100140006F72730074696D696E670074696D696EB2
:1001500067006761696E006761696E0074736C3275
:100160003539310074736C323539310074736C3247
:100170003539310074696D696E67006761696E00B9
:1001800073656E736F720074736C3235393100733E
:10019000656E736F727300008919841A11241FBE73
:1001A000CFEFD8E0DEBFCDBF11E0A0E0B1E0E8EED8
:1001B000F1E402C005900D92AC3FB107D9F723E0FE
:1001C000ACEFB1E001C01D92A439B207E1F710E035
:1001D000CDECD0E004C02197FE010E94A41ACC3CD3
:1001E000D107C9F70E94F0190C94E7200C94000085
:1001F000FC0126813781620F731F848195818617E8
:10020000970738F08281938177836683820F931FEB
:10021000089580E090E00895813051F0E8F0823058
:1002200061F0833079F46FE672E183E89AE3089530
:100230006DEC7CEC8CEC9DE308956AE077ED83E255
:100240009CE3089584500E940C0127E137EB41EDB7
:1002500058E30E94A61F089560E070E080E89FE3E5
:100260000895CF93DF93EC0188819981DC01ED91B2
:10027000FC910190F081E02D09952A813B81820F4C
:10028000931F9B838A83DF91CF910895DF92EF9232
:10029000FF920F931F93CF93DF93EC01D62E8E81A5
:1002A00087FD03C000E010E01FC0E12CF12C00E04E
:1002B00010E09E81892F8F7092959770899FC00161
:1002C0001124E816F90684F48C819D81DC01ED91FE
:1002D000FC910190F081E02D60E20995080F191F53
:1002E000BFEFEB1AFB0AE5CF8C819D81DC01ED911C
:1002F000FC910190F081E02D6D2D0995AC0121E07C
:10030000BAE0DB1220E09E8120FB97F99E83CA01B0
:10031000800F911FDF91CF911F910F91FF90EF9070
:10032000DF9008950895FC0194819F7D9B35A1F491
:100330000580F681E02D3681932F9F709F3039F034
:100340009F5F292F2F70932F907F922B96836EE9BA
:1003500071E0CF010C94E90F80E090E00895FF92E6
:100360000F931F93CF93DF938C01F62EDC0117962A
:100370008C918823B1F0B2E26B1305C0F80184813F
:100380008C3509F0A5C0D80115968D919C911697D2
:10039000DC01ED91FC910190F081E02D6F2D09952C
:1003A0008FC0BBE56B1751F1B617F0F0ECE26E179A
:1003B00009F461C0FAE36F1709F446C082E26813DA
:1003C0006EC081E0D80117968C93C8010E949301FA
:1003D000EC01F80185819681DC01ED91FC910190A1
:1003E000F081E02D62E269C0ABE76A1739F0BDE742
:1003F0006B1741F0EDE56E1352C004C0C8010E94B6
:1004000093011BC0F80184818F7D8B3519F4C0E006
:10041000D0E014C00580F681E02D3681932F9F70C7
:1004200039F0915F292F2F70932F907F922B968315
:100430006EE971E0CF010E94E90FEC01D801159639
:100440008D919C91169732C0F80185819681DC01CF
:10045000ED91FC910190F081E02D6AE30995EC01AA
:10046000F80185819681DC01ED91FC910190F0818C
:10047000E02D60E222C0F80185819681DC01ED91DA
:10048000FC910190F081E02D6CE20995EC016EE9A0
:1004900071E0F801858196810E94E90F0FC0C801C3
:1004A0000E949301EC01F80185819681DC01ED91B8
:1004B000FC910190F081E02D6F2D09958C0F9D1F0F
:1004C000F801F482DF91CF911F910F91FF90089571
:1004D000178259CFCF93DF93EC01888199810E94D5
:1004E000E90F2A813B81820F931F9B838A83DF91CF
:1004F000CF9108958F929F92AF92BF92EF92FF9209
:100500000F931F93CF93DF93CDB7DEB766970FB6E8
:10051000F894DEBF0FBECDBF7C011E8A8E010A5E3D
:100520001F4F8AE0882E912CA12CB12CCB01BA014F
:10053000A50194010E947420942F852F605DF8011D
:1005400062938F01A901692F782F4115510561052B
:10055000710561F7BF01C7010E946A0266960FB676
:10056000F894DEBF0FBECDBFDF91CF911F910F91E9
:10057000FF90EF90BF90AF909F908F900895FF9263
:100580000F931F93CF93DF936115710549F460EBCF
:1005900071E0DF91CF911F910F91FF900C946A024F
:1005A0008B01EC0162E2CE010E943101F801619100
:1005B0008F01662351F0E1EAF1E0F080FF2099F32A
:1005C0009181961759F03296F8CF62E2CE01DF9111
:1005D000CF911F910F91FF900C9431016CE5CE01EA
:1005E0000E9431016F2DDFCF0C94721C0F931F936B
:1005F000CF93DF938C01EB0188E2FB0111928A9586
:10060000E9F74BE050E065EB71E0CE010E94F21D8E
:100610001B8681E090E0A0E0B0E08C879D87AE87EC
:10062000BF87F80187819085A185B285888B998BDA
:10063000AA8BBB8B85E090E0A0E0B0E08C8B9D8B1B
:10064000AE8BBF8B1CA21DA21EA21FA280E090EE4B
:10065000ABEAB7E4888F998FAA8FBB8F1C8E1D8E53
:100660001E8E1F8E80E090E0A0E8BFE388A399A3D0
:10067000AAA3BBA3DF91CF911F910F910895CF93B0
:10068000DF931F92CDB7DEB781E080930D0289E240
:1006900080930F0210920E021092100281E192E0FC
:1006A00049830E943E094981642F81E192E00E94C2
:1006B0003E0981E00F90DF91CF910C946D09CF93AB
:1006C000DF9381E080930D0289E280930F02109204
:1006D0000E021092100281E192E00E943E0981E038
:1006E0000E946D0982E090E00E94CA0981E192E0D7
:1006F0000E94F208EC0181E192E00E94F20820E001
:1007000030E0382FC9018C2B9D2BDF91CF910895BC
:100710000F931F93CF93DF93CDB7DEB727970FB615
:10072000F894DEBF0FBECDBF8C010896F80193830D
:1007300082838CE291E095838483178216828AE813
:1007400091E091838083FB0180819181009711F476
:100750008FEA91E01A8309839C838B831E830D8328
:100760008AE08F83CE0101960E946C17F801EC5C41
:10077000FE4F9183808327960FB6F894DEBF0FBE9D
:10078000CDBFDF91CF911F910F9108950F931F93CC
:10079000CF93DF938C01EB016BE7CE010E94310117
:1007A000F8010281138101151105A9F0F801628198
:1007B0007381CE010E94BF026AE3CE010E94310123
:1007C000BE01C80104960E94F803F801008111815E
:1007D0000115110541F46DE7CE01DF91CF911F9115
:1007E0000F910C9431016CE2CE010E943101DBCFFC
:1007F0004F925F926F927F929F92AF92BF92CF92F1
:10080000DF92EF92FF920F931F93CF93DF938C01B0
:10081000EB01FC01A080B180F8E0AF16B10408F054
:100820007BC0F501EC5CFF4F0C94A41AFC01028123
:1008300013816BE5CE010E943101F8010281138121
:100840000115110559F0BE01C80102960E94F80376
:10085000F801008111810115110599F46DE5CE01B2
:10086000DF91CF911F910F91FF90EF90DF90CF908C
:10087000BF90AF909F907F906F905F904F900C943F
:1008800031016CE2CE010E943101DACFFC0182819C
:100890009381DF91CF911F910F91FF90EF90DF90A7
:1008A000CF90BF90AF909F907F906F905F904F9050
:1008B0000C94C603FC0162817381CE01DF91CF915C
:1008C0001F910F91FF90EF90DF90CF90BF90AF906E
:1008D0009F907F906F905F904F900C94BF02FC01AF
:1008E0006281738157C06DE2CE010E943101F8012F
:1008F000428153816481758117C1FC01828193819A
:10090000A481B581892B8A2B8B2B19F462EC71E0C1
:1009100041C06DEB71E03EC088EF982E9A0CF80153
:10092000C280D380E480F580A7019601C701B6019B
:100930000E94D81B882319F068EC71E02BC020E0DE
:1009400030E0A901C701B6010E94401F87FF08C01F
:100950006DE2CE010E943101F7FAF094F7F8F094BD
:1009600026013701E89477F82FEF3FEF4FE75FE775
:10097000C301B2010E94D81B81111EC02FEF3FEFAF
:100980004FE75FE7C301B2010E94401F1816A4F4AD
:100990006CEC71E0CE01DF91CF911F910F91FF9030
:1009A000EF90DF90CF90BF90AF909F907F906F902F
:1009B0005F904F900C946A0220E030E04AE754E4E4
:1009C000C701B6010E94D31B00E010E018160CF11D
:1009D0002FE632E143E85AE3C701B6010E94401F07
:1009E00087FF37C016C020E030E040E85FE3C70172
:1009F000B6010E94401F87FF15C00150110920E079
:100A000030E040E251E4C701B6010E94A61F6B012D
:100A10007C0120E030E0A901C701B6010E94401F1F
:100A20008111E1CF20E030E040E251E4C701B6019E
:100A30000E94D31B18166CF40F5F1F4F20E030E0AC
:100A400040E251E4C701B6010E942B1B6B017C01FF
:100A5000E9CF892D0E940C0120E030E040E05FE307
:100A60000E94A61F9B01AC01C701B6010E94BF1ADC
:100A70002B013C010E94A41B6B017C010E94451FBD
:100A80009B01AC01C301B2010E94BE1A2B013C01C3
:100A9000B701A601CE010E947A02992021F06EE2F0
:100AA000CE010E943101F8E0AF1619F120E030E0EC
:100AB00040E251E4C301B2010E94A61F2B013C0198
:100AC0000E949D1BF62E062E000C770B880B990BAF
:100AD0000E94471F9B01AC01C301B2010E94BE1AD4
:100AE0002B013C0160E36F0DCE010E943101AA94FD
:100AF000DACF17FF0EC065ED71E0CE010E946A02E9
:100B000044275527401B510B052E000C660B770B15
:100B10000BC001151105D1F065E6CE010E9431012F
:100B2000A801110F660B770BCE01DF91CF911F91BA
:100B30000F91FF90EF90DF90CF90BF90AF909F907C
:100B40007F906F905F904F900C947A02DF91CF91DD
:100B50001F910F91FF90EF90DF90CF90BF90AF90DB
:100B60009F907F906F905F904F90089580910002CA
:100B700081110BC01092FD011092FC011092FF0137
:100B80001092FE0181E0809300028CEF91E00895C5
:100B9000DB01109749F0ED91FC9111970190F081E4
:100BA000E02DBC01CD01099480E090E00895CF9341
:100BB000DF93EC01BC0184E090E00E94C80500973F
:100BC00041F0FC01D183C08313821282DF91CF9167
:100BD0000895DF91CF910C94B6054F925F926F927A
:100BE0007F928F929F92AF92BF92CF92DF92EF92BD
:100BF000FF920F931F93CF93DF93DC018B01EA01E8
:100C000013962D913C9114972150310925303105CF
:100C100060F4220F331F220F331FF901EA5FFE4FEA
:100C2000608171818281938104C060E070E088EC12
:100C300092E415962D913C9116972032310559F08A
:100C40002033310569F02031310579F420E030E0BE
:100C500048EC51E40EC020E030E046ED53E409C01A
:100C600020E030E54AE156E404C020E030E040E80E
:100C70005FE30E94A61F20E030E04CEC53E40E94AA
:100C80002B1B6B017C01B80180E090E00E94451FA6
:100C90002B013C01BE0180E090E00E94451F4B010A
:100CA0005C0125E83BEE41ED5FE30E94A61F9B013E
:100CB000AC01C301B2010E94BE1AA70196010E94B5
:100CC0002B1B162FD72FC82F092F2DE33AE047E112
:100CD0005FE3C301B2010E94A61F2B013C0126EF76
:100CE00038E24CE55FE3C501B4010E94A61F9B01F9
:100CF000AC01C301B2010E94BE1AA70196010E9475
:100D00002B1B6B017C019B01AC01612F7D2F8C2F74
:100D1000902F0E94D31B181624F01C2DDD2DCE2DF4
:100D20000F2D612F7D2F8C2F902F0E94A41BDF9100
:100D3000CF911F910F91FF90EF90DF90CF90BF90D8
:100D4000AF909F908F907F906F905F904F9008959D
:100D500008951F93CF93DF93EC0110920902109234
:100D6000080210920E021092100210920C0211E072
:100D700010930B0210920A0282E10E94130A83E18F
:100D80000E94130A8091B9008E7F8093B9008091F0
:100D9000B9008D7F8093B90088E48093B80085E422
:100DA0008093BC0010930D0289E280930F02109291
:100DB0000E021092100262EB81E192E00E943E0965
:100DC00081E00E946D0981E090E00E94CA0981E102
:100DD00092E00E94F208803581F41B876B817C8150
:100DE000CE010E9464086D817E81CE010E948A0836
:100DF000CE010E94020781E001C080E0DF91CF9127
:100E00001F910895CF93DF93EC018B85882339F0F0
:100E100040E060EACE01DF91CF910C943F03CE0118
:100E20000E94A9068111F4CFDF91CF9108958F928E
:100E30009F92AF92BF92CF92DF92EF92FF92CF93A9
:100E4000DF93EC010E94F80C4B015C01CC84DD8443
:100E5000EE84FF846C157D058E059F0528F46C8754
:100E60007D878E879F8734C02B813C81A8E7B0E0C7
:100E70000E94D820C60ED71EE81EF91EC814D90439
:100E8000EA04FB0428F566EBCE010E945F03A0E0B4
:100E9000B0E0DC0199278827888B998BAA8BBB8BC4
:100EA00064EBCE010E945F03AC0160E070E08889D2
:100EB0009989AA89BB89842B952BA62BB72B888B64
:100EC000998BAA8BBB8BCE010E94020781E001C0E7
:100ED00080E0DF91CF91FF90EF90DF90CF90BF90B7
:100EE000AF909F908F900895CF93DF93EC018B8507
:100EF000882339F043E960EACE01DF91CF910C9469
:100F00003F03CE010E94A9068111F4CFDF91CF915A
:100F100008958F929F92AF92BF92CF92DF92EF92FD
:100F2000FF921F93CF93DF93EC018B85882329F0E9
:100F3000CE010E94740710E027C0CE010E94A906CE
:100F40008111F6CF60E070E090E049C00E94D30CC0
:100F5000DC01CB0188199909AA09BB09883E934095
:100F6000A105B10558F021E0C21AD108E108F10845
:100F700088EE880E83E0981EA11CB11CC114D10418
:100F8000E104F10419F71F5F812F90E02B813C8170
:100F90002817390754F00E94D30C4B015C0198E7E5
:100FA000C92ED12CE12CF12CD1CF66EBCE010E94C1
:100FB0005F036C01E12CF12C7601DD24CC2464EB81
:100FC000CE010E945F03AC0160E070E0C42AD52A24
:100FD000E62AF72ACE010E940207B601C701DF9177
:100FE000CF911F91FF90EF90DF90CF90BF90AF9087
:100FF0009F908F9008954F925F926F927F928F9201
:101000009F92AF92BF92CF92DF92EF92FF920F9397
:101010001F93CF93DF938C01EB010E948907C801D6
:101020000E9489076B017C0127016624772484E2F2
:10103000FE0111928A95E9F784E290E0A0E0B0E029
:1010400088839983AA83BB83F80187819085A185D2
:10105000B2858C839D83AE83BF8385E090E0A0E062
:10106000B0E088879987AA87BB870E94F80C688BB5
:10107000798B8A8B9B8BFFEF4F165F0651F08FEFBA
:10108000C816D80631F0A201B601C8010E94ED05CC
:1010900003C060E070E0CB010E94451F6C8B7D8B2C
:1010A0008E8B9F8B81E0DF91CF911F910F91FF90ED
:1010B000EF90DF90CF90BF90AF909F908F907F90F8
:1010C0006F905F904F9008950F931F93CF93DF938E
:1010D000EC01162F072F8B85882391F0CE010E94FB
:1010E00074071B830C834D81412B61EACE010E9462
:1010F0003F03CE01DF91CF911F910F910C94020716
:10110000CE010E94A9068111E9CFDF91CF911F91F5
:101110000F9108950F931F93CF93DF93EC01162F38
:10112000072F8B85882391F0CE010E9474071D83C1
:101130000E834B81412B61EACE010E943F03CE0119
:10114000DF91CF911F910F910C940207CE010E9465
:10115000A9068111E9CFDF91CF911F910F910895D9
:1011600085ED8093BC008091BC0084FDFCCF109283
:101170000C0208954091F902262F30E0240F311D12
:1011800021323105DCF420910C022430C9F4FC0139
:1011900080E090E0861758F43091F9022191DC014B
:1011A000A952BD4FA30FB11D2C930196F3CF80918F
:1011B000F902680F6093F90280E0089581E00895D4
:1011C00082E008950895E091090280910802E817ED
:1011D00030F4F0E0E65DFC4F808190E008958FEF01
:1011E0009FEF08959091090280910802981750F49A
:1011F000E92FF0E0E65DFC4F208130E09F5F9093A7
:10120000090202C02FEF3FEFC90108958091080243
:1012100090E020910902821B91090895CF92DF92FC
:10122000EF92FF920F931F93CF93DF937C01262FB2
:10123000972F8A0180910D02882391F0C62FD72F16
:101240006E01C40ED51ECC15DD0571F06991D70174
:10125000ED91FC910190F081E02DC7010995F3CF4C
:10126000642F822F0E94BA08C801DF91CF911F918D
:101270000F91FF90EF90DF90CF900895CF93DF9381
:101280001F92CDB7DEB7698320910D022223D1F0E2
:1012900020911002203240F021E030E0FC01338345
:1012A000228380E090E015C080910E02E82FF0E0EC
:1012B000E259FC4F998190838F5F80930E02809357
:1012C000100205C061E0CE0101960E94BA0881E0DB
:1012D00090E00F90DF91CF910895382F2091100268
:1012E00090910F02213208F049C080910C028111C7
:1012F000FCCF42E040930C0230930B023FEF30935F
:101300006D0310926C0320936B03AEE6B3E04BE4E5
:1013100053E0FA013E2F341B321718F43D913193FC
:10132000F9CF10924A0320914A03990F922B909380
:101330004A0390910A02913061F410920A0290914E
:101340004A039093BB009091BC0093FDF8CF95ECBD
:1013500001C095EE9093BC0090910C029230E1F3A5
:1013600090916D039F3F79F080916D03803241F041
:1013700080916D03803331F084E005C081E003C0CB
:1013800082E001C083E010920E02109210021092CF
:101390000D02089590910C029111FCCF813208F05A
:1013A00080E291E090930C0290930B022FEF209338
:1013B0006D0310926C03280F20936B0390934A03E4
:1013C00090914A03926590934A0390910A0291305A
:1013D00061F410920A0290914A039093BB0090919D
:1013E000BC0093FDF8CF95EC01C095EE9093BC0046
:1013F00090910C029130E1F390916C03981710F4E6
:1014000080916C03ABE4B3E02AE233E0F9019E2F54
:10141000921B981718F49D919193F9CF109209029D
:1014200080930802089590E0FC01E655FF4F249157
:10143000FC01EA56FF4F3491FC01EE57FF4FE49157
:10144000EE23B1F1222339F1233091F038F4213029
:10145000A9F0223001F584B58F7D12C0273091F0BC
:101460002830A1F02430B9F4809180008F7D03C032
:10147000809180008F77809380000DC084B58F7736
:1014800084BD09C08091B0008F7703C08091B00007
:101490008F7D8093B000F0E0EE0FFF1FE858FF4F04
:1014A000A591B4918FB7F894EC913E2B3C938FBFEC
:1014B00008959F92AF92BF92CF92DF92EF92FF92E8
:1014C0000F931F93CF93DF9300D000D000D0CDB700
:1014D000DEB7FC019681992309F4E2C06B017F011C
:1014E000915096835F0182E0A80EB11CC5010E9455
:1014F0005E16D7011296ED91FC91139780818B3582
:1015000021F08B3709F499C0A3C0F7010081118144
:10151000B80184E090E00E94C805009751F0DC011A
:1015200011961C930E9313961C921E9212978C0187
:1015300011C08091220381110BC010921F031092E1
:101540001E03109221031092200381E08093220356
:101550000EE113E06BE5C5010E94A016882309F493
:101560004CC06DE5C5010E94A016811157C086E0F0
:10157000982E1A821982BE016F5F7F4FC7010E94A9
:10158000590A8823D1F1F8016081718188E090E0E7
:101590000E94C805DC01892B39F011961C921E921D
:1015A00013961C921E921297F80122813381211505
:1015B000310551F0F90180819181009711F09C0172
:1015C000F9CFB183A08303C0F801B383A28310973E
:1015D000A1F0FE0131961296892D01900D928A9507
:1015E000E1F76DE5C5010E94A016811117C06CE2FC
:1015F000C5010E94A0168111BCCF809122038111E8
:101600000BC010921F0310921E0310922103109220
:10161000200381E0809322030EE113E0D8018D9135
:101620009C91892B11F410E033C086E090E0F60124
:1016300091838083138302832AC0C7010E946C17A1
:10164000DC012D913C91232B71F327E030E01AC08F
:1016500011E0873219F0823209F010E0C7010E94D0
:10166000BF16009701F3112359F022E030E0D601B4
:1016700011963C932E9313969C938E93129708C0C9
:1016800021E030E0F601318320839383828311E0EF
:10169000D70116968C9116978F5F16968C9301C082
:1016A00010E0812F26960FB6F894DEBF0FBECDBF97
:1016B000DF91CF911F910F91FF90EF90DF90CF902E
:1016C000BF90AF909F900895CF93DF93FC0144812A
:1016D0005581608171818DE192E00E94890DEC015C
:1016E0006EE971E08DE192E00E94E90F8C0F9D1F81
:1016F000DF91CF9108950F931F93CF93DF93EC0168
:101700008B0168ED71E08A819B810E9456100097E1
:1017100051F4CE010E946B15009789F028ED31E05D
:10172000FC0133832283BC016C5F7F4FA801888159
:101730009981DF91CF911F910F910C949D1080E0C2
:10174000DF91CF911F910F9108951F920F920FB6C5
:101750000F9211242F933F934F935F936F937F9337
:101760008F939F93AF93BF93EF93FF938091B900B3
:10177000887F803609F49CC068F5883209F45BC024
:1017800090F4803109F454C038F4882309F4F6C089
:10179000883009F44DC0F6C0883109F44CC080325D
:1017A00009F45DC0EFC0803409F468C048F48033A8
:1017B00009F455C0883309F0E5C080936D03D8C0A3
:1017C000803509F44FC0883509F45DC0883409F0CC
:1017D000D9C0D6C0883909F4C7C0A8F4883709F43D
:1017E00067C038F4883609F463C0803709F460C0F4
:1017F000C9C0883809F4B8C0803909F45FC080389E
:1018000009F0C0C05BC0803B09F486C038F4803A60
:1018100009F466C0883A09F47FC0B4C0803C09F47A
:10182000A7C0883C09F4A4C0883B09F48AC0AAC0B8
:1018300080914A0310C090916C0380916B039817BC
:1018400070F5E0916C0381E08E0F80936C03F0E003
:10185000E55BFC4F80818093BB0085EC86C0809364
:101860006D038EC0E0916C0381E08E0F80936C035A
:101870008091BB00F0E0E55BFC4F808390916C03AE
:1018800080916B036EC0E0916C0381E08E0F8093BA
:101890006C038091BB00F0E0E55BFC4F808380919E
:1018A0000B0281116DC081E080930A0284EA61C05D
:1018B00083E080930C0210921D03CFCF80911D0313
:1018C000803208F051C0E0911D0381E08E0F8093BB
:1018D0001D038091BB00F0E0E350FD4F8083BDCF3E
:1018E00085EC8093BC0010920C0280911D03803225
:1018F00030F4E0911D03F0E0E350FD4F1082609161
:101900001D0370E0E091FB02F091FC028DEF92E08C
:10191000099510921D0336C084E080930C0210924A
:10192000FA021092F902E091F702F091F80209959B
:101930008091F902811105C081E08093F902109233
:10194000D702E091FA0281E08E0F8093FA02F0E074
:10195000E952FD4F80818093BB009091FA02809103
:10196000F902981708F479CF85E88093BC000AC083
:1019700085EC8093BC0010920C0204C010926D03A1
:101980000E94B008FF91EF91BF91AF919F918F910D
:101990007F916F915F914F913F912F910F900FBE6B
:1019A0000F901F9018953FB7F8948091D3029091B3
:1019B000D402A091D502B091D60226B5A89B05C04D
:1019C0002F3F19F00196A11DB11D3FBFBA2FA92FBE
:1019D000982F8827820F911DA11DB11DBC01CD013B
:1019E00042E0660F771F881F991F4A95D1F7089527
:1019F0002FB7F8946091CF027091D0028091D102FC
:101A00009091D2022FBF08950F931F930E94F80C5C
:101A100060932502709326028093270290932802F8
:101A2000E0911D02F0911E020680F781E02D8DE10C
:101A300092E0099597FF1FC00E94F80C00912502C3
:101A4000109126022091270230912802DC01CB015F
:101A5000801B910BA20BB30B00912102109122026B
:101A6000209123023091240280179107A207B30727
:101A7000B8F28FEF9FEF1F910F9108951F920F9271
:101A80000FB60F9211242F933F938F939F93AF9391
:101A9000BF938091CF029091D002A091D102B091DA
:101AA000D2023091CE0223E0230F2D3720F401968D
:101AB000A11DB11D05C026E8230F0296A11DB11D71
:101AC0002093CE028093CF029093D002A093D102B4
:101AD000B093D2028091D3029091D402A091D5020A
:101AE000B091D6020196A11DB11D8093D3029093AF
:101AF000D402A093D502B093D602BF91AF919F912B
:101B00008F913F912F910F900FBE0F901F901895BE
:101B10000895CF92DF92EF92FF920F931F93CF938E
:101B2000DF936C017A018B01C0E0D0E0CE15DF05B8
:101B300089F0D8016D918D01D601ED91FC91019054
:101B4000F081E02DC6010995892B11F47E0102C0B8
:101B50002196ECCFC701DF91CF911F910F91FF909C
:101B6000EF90DF90CF900895FC01918D828D9817B2
:101B700061F0828DDF01A80FB11D5D968C91928D71
:101B80009F5F9F73928F90E008958FEF9FEF08956E
:101B9000FC01918D828D981731F0828DE80FF11D37
:101BA000858D90E008958FEF9FEF0895FC01918D52
:101BB000228D892F90E0805C9F4F821B91098F734B
:101BC000992708958DE192E00E94D60D21E0892B9E
:101BD00009F420E0822F0895FC01848DDF01A80F15
:101BE000B11DA35ABF4F2C91848D90E001968F7345
:101BF0009927848FA689B7892C93A089B1898C9164
:101C000080648C93938D848D981306C00288F38929
:101C1000E02D80818F7D80830895EF92FF920F9356
:101C20001F93CF93DF93EC0181E0888F9B8D8C8D88
:101C3000981305C0E889F989808185FD24C0F62EB6
:101C40000B8D10E00F5F1F4F0F731127E02E8C8D4F
:101C5000E8120CC00FB607FCFACFE889F989808139
:101C600085FFF5CFCE010E94EC0DF1CF8B8DFE01EB
:101C7000E80FF11DE35AFF4FF0820B8FEA89FB89D1
:101C80008081806207C0EE89FF896083E889F989D5
:101C900080818064808381E090E0DF91CF911F910B
:101CA0000F91FF90EF900895CF93DF93EC01888D13
:101CB0008823C9F0EA89FB89808185FD05C0A88950
:101CC000B9898C9186FD0FC00FB607FCF5CF8081D6
:101CD00085FFF2CFA889B9898C9185FFEDCFCE0120
:101CE0000E94EC0DE7CFDF91CF91089580E090E066
:101CF000892B29F00E94E20D81110C9400000895B7
:101D00000E94D41DCF93DF93DC01ED91FC91EB0198
:101D1000A881B981309711F01097C9F4109759F044
:101D2000EB012C813D81232B31F08C9190E091953A
:101D30008195910914C0309781F0DC0114968D9142
:101D40009C911597892B49F0808190E008C0BD01D6
:101D5000CF01DF91CF910C94E21D80E090E0DF9104
:101D6000CF9108950F931F93CF93DF938C01EB01D5
:101D7000FC01808191810097B1F0688179816115C2
:101D8000710579F0428153812C813D8142175307BF
:101D900040F00E94EB1D8C819D81F8019583848326
:101DA00013C00E94721C88819981F80191838083FD
:101DB0008A819B81938382838C819D819583848397
:101DC000198218821B821A821D821C82DF91CF9198
:101DD0001F910F910895CF93DF93EC018881998132
:101DE000009711F00E94721C198218821D821C82B9
:101DF0001B821A82DF91CF9108950F931F93CF9387
:101E0000DF93EC0188819981009729F02A813B8139
:101E10002617370788F48B016F5F7F4F0E940A1DDA
:101E2000009761F0998388831B830A832C813D810D
:101E3000232B11F4FC01108281E001C080E0DF91CE
:101E4000CF911F910F910895EF92FF920F931F93DF
:101E5000CF93DF93EC018B016115710551F0CB013C
:101E60000E94341F7C01BC01CE010E94FD0E811135
:101E700004C0CE010E94EB0E07C0FD82EC82B801C7
:101E8000888199810E942D1FCE01DF91CF911F91F2
:101E90000F91FF90EF900895EF92FF920F931F9391
:101EA000CF93DF9300D0CDB7DEB78C0169831A8260
:101EB000FC01E480F580FFEFEF1AFF0AB7010E94F2
:101EC000FD0E882381F0F801208131818481958184
:101ED000BE016F5F7F4F820F931F0E94EB1DF801C1
:101EE000F582E48281E00F900F90DF91CF911F91F6
:101EF0000F91FF90EF900895EF92FF920F931F9331
:101F0000CF93DF93EC017B018A01BA010E94FD0EA1
:101F1000811104C0CE010E94EB0E07C01D830C830B
:101F2000B701888199810E94EB1DCE01DF91CF918D
:101F30001F910F91FF90EF900895EF92FF920F93F2
:101F40001F93CF93DF9300D000D000D0CDB7DEB782
:101F50007C018B0140E050E06FEA71E0C8010E9413
:101F60007C0FF701808191811C821B8222E731E086
:101F70003A8329831E830D83BE016F5F7F4F0E94CA
:101F8000E917C80126960FB6F894DEBF0FBECDBF85
:101F9000DF91CF911F910F91FF90EF900895FC0179
:101FA000808191810C94721CFC0111821082138239
:101FB0001282158214826115710551F0FB010190A6
:101FC0000020E9F73197AF01461B570B0C947C0FAB
:101FD00008956115710579F0FB0101900020E9F782
:101FE0003197AF01461B570BDC01ED91FC9102804C
:101FF000F381E02D099480E090E008951F920F9204
:102000000FB60F9211242F933F934F935F936F93CB
:102010007F938F939F93AF93BF93EF93FF938DE144
:1020200092E00E94EC0DFF91EF91BF91AF919F91D3
:102030008F917F916F915F914F913F912F910F9071
:102040000FBE0F901F9018951F920F920FB60F9210
:1020500011242F938F939F93EF93FF93E0912D0281
:10206000F0912E028081E0913302F091340282FDE2
:1020700012C09081809136028F5F8F73209137025A
:10208000821751F0E0913602F0E0E35EFD4F958F4C
:102090008093360201C08081FF91EF919F918F91D3
:1020A0002F910F900FBE0F901F9018950F931F93B5
:1020B000CF93DF93EC018B01209759F06A817B81EC
:1020C000C8010E94E21D892B39F00990D881C02DEA
:1020D000F3CF80E090E001C0CE01DF91CF911F915E
:1020E0000F9108950F931F93CF93DF93FC0182818B
:1020F00093810E945610EC01892BC1F00C811D8147
:102100000130110559F46E817F816115710531F03F
:1021100080EB91E00E94E21D892B41F001501109F2
:102120000230110518F48E819F8102C080E090E09A
:10213000DF91CF911F910F910895CF92DF92EF928F
:10214000FF920F931F93CF93DF93DA012D913C9170
:10215000232BF9F0EA016B010C811D810F5F1F4FEA
:10216000DC01ED91FC910190F081E02DB801099521
:102170007C01009771F068817981A8010E94D91DC6
:1021800082E090E0F60191838083F382E28281E035
:1021900001C080E0DF91CF911F910F91FF90EF90F0
:1021A000DF90CF900895CF92DF92EF92FF920F933E
:1021B0001F93CF93DF938C017B016A01FC01C281E5
:1021C000D381209759F0B7018A819B810E94241FF7
:1021D000892BA1F00990D881C02DF3CFC8010E94AE
:1021E0006B15EC01892BD9F0F80160817181C70171
:1021F0000E944215009799F09B838A83BE016C5F11
:102200007F4FA601F80180819181DF91CF911F91CD
:102210000F91FF90EF90DF90CF900C949D1080E095
:10222000DF91CF911F910F91FF90EF90DF90CF90B2
:102230000895EF92FF920F931F93CF93DF93CDB743
:10224000DEB7C653D1400FB6F894DEBF0FBECDBF88
:10225000CE0101960E94281548EC52E06DEC70E02A
:10226000CB5CDE4F88819981C553D1400E94D31049
:10227000CB5CDE4FE880F980C553D140F701028185
:1022800013810115110569F066EC70E0F801828197
:1022900093810E94241F892BB1F0F80100811181E4
:1022A000F0CFC7010E946B158C01892BE1F0F7017B
:1022B0006081718186EC90E00E944215009799F050
:1022C000F80193838283F701608171818EEB90E046
:1022D0000E944215009739F022E030E0F801358382
:1022E0002483978386836DE172E0CB5CDE4F888127
:1022F0009981C553D1400E94E917CA5CDE4F0FB6E1
:10230000F894DEBF0FBECDBFDF91CF911F910F912B
:10231000FF90EF900895CF93DF93CDB7DEB7C6530C
:10232000D1400FB6F894DEBF0FBECDBF6AEF70E0AC
:1023300088EC92E00E94240FCE0101960E9428159D
:1023400068EC72E0CB5CDE4F88819981C553D14047
:102350000E947B0B6CE271E082EC92E00E94FD0E29
:1023600062EC72E0CE018B5C9E4F0E949D0FCE010D
:1023700001960E94281568EC72E0CB5CDE4F8881E4
:102380009981C553D1400E947B0B6CE271E082ECD5
:1023900092E00E94FD0E6CEB72E0CE018B5C9E4FD2
:1023A0000E949D0FEDE1F2E084E690E0A0E0B0E055
:1023B00084839583A683B783A089B18982E08C93B7
:1023C000A089B1891C92A485B5851C92A685B78584
:1023D00080E18C93108EA489B58986E08C93A289C4
:1023E000B3898C9180618C93A289B3898C91886028
:1023F0008C93A289B3898C9180688C930288F3892D
:10240000E02D80818F7D80838091BA029091BB0204
:10241000DC01ED91FC910190F081E02D0995809116
:10242000BA029091BB02DC01ED91FC910280F38134
:10243000E02D0995CA5CDE4F0FB6F894DEBF0FBEE3
:10244000CDBFDF91CF910895CF92DF92EF92FF92AF
:102450000F931F93CF93DF93CDB7DEB7C854D1400E
:102460000FB6F894DEBF0FBECDBF7C016FEA71E0FE
:10247000CE01835C9E4F0E94D40F6FEA71E0CE01C3
:10248000895C9E4F0E94D40FB701CE0101960E9435
:102490008803CB5CDE4F08811981C553D140D80138
:1024A0008D919C911197892B09F446C11296CD907C
:1024B000DC9013976BED71E0C6010E945610892BDA
:1024C00091F06BED71E0C8010E947210BC01CE0169
:1024D0008D5B9E4F0E94D40FBE016D5B7E4FCE017F
:1024E000835C9E4F18C068ED71E0C6010E945610D3
:1024F000892BC1F068ED71E0C8010E947210BC0127
:10250000CE018D5B9E4F0E94D40FBE016D5B7E4F4E
:10251000CE01895C9E4F0E94B20ECE018D5B9E4F14
:102520000E94CF0F6FED71E0CE0101960E94D40F93
:10253000BE016F5F7F4FCE01835C9E4F0E94820E73
:102540008C01CE0101960E94CF0F012B81F4809166
:10255000BA029091BB02DC01ED91FC910084F185FF
:10256000E02D62EC72E0099582EC92E017C064EE17
:1025700071E0CE0101960E94D40FBE016F5F7F4FC4
:10258000CE01835C9E4F0E94820E8C01CE0101968B
:102590000E94CF0F012B29F48CEB92E00E94640B78
:1025A000CBC0C55CDE4F48815981CB53D14041152A
:1025B000510579F48091BA029091BB02DC01ED9152
:1025C000FC910284F385E02DB70109958111CEC0FD
:1025D00041C0C95CDE4F68817981C753D14088EC26
:1025E00092E06115710519F00E947C0F02C00E94F3
:1025F000EB0E62EC72E0CE0101960E948803BE01F0
:10260000695C7E4FCB5CDE4F88819981C553D14098
:102610000E947B0B62EC72E0CE018B5C9E4F0E94AD
:102620009D0F6CEB72E0CE0101960E948803BE0103
:10263000695C7E4FCB5CDE4F88819981C553D14068
:102640000E947B0B6CEB72E0CE018B5C9E4F0E9474
:102650009D0F8CC0CD5BDE4F19821882C354D140D0
:10266000CB5BDE4F19821882C554D140C95BDE4F67
:1026700019821882C754D14069EE70E0CE018D5B9B
:102680009E4F0E94240FCE0101960E94281548EC0F
:1026900052E066EE70E0CB5CDE4F88819981C553D5
:1026A000D1400E94D310CB5CDE4FE880F980C55347
:1026B000D14069EE71E0D70112968D919C911397EC
:1026C0000E9456108C01892B59F4C7010E946B158A
:1026D0008C01892BA9F089EE91E0F8019383828324
:1026E000D7016D917C918EED90E00E94421500978C
:1026F00039F022E030E0F801358324839783868324
:10270000AE014D5B5E4F60ED70E0CB5CDE4F8881CB
:102710009981C553D1400E94D3106DE172E0CB5C2A
:10272000DE4F88819981C553D1400E94E917CE01BF
:102730008D5B9E4F0E94CF0FCE01895C9E4F0E9401
:10274000CF0FCE01835C9E4F0E94CF0FC85BDE4F40
:102750000FB6F894DEBF0FBECDBFDF91CF911F91B2
:102760000F91FF90EF90DF90CF9008950E94191184
:10277000E3CF0F931F93CF93DF93EC018B0120974F
:1027800059F06A817B81C8010E94E21D892B39F0D2
:102790000990D881C02DF3CF80E090E001C0CE0138
:1027A000DF91CF911F910F9108950F931F93CF93B6
:1027B000DF93EC018B01209759F0B8018A819B814E
:1027C0000E94241F892B39F00990D881C02DF3CFA6
:1027D00080E090E001C0CE01DF91CF911F910F9179
:1027E0000895FC01848195810E944C0F81E090E066
:1027F0000895CF93DF93FC01828193810E94D513CA
:10280000FC01892B09F447C08481958183309105AF
:1028100034F481309105DCF4892B99F12BC085309B
:10282000910584F0059731F586819781A085B18562
:102830009C01AD0166277727CB01621B730B840BCC
:10284000950B27C0668177818085918522C0C681DE
:10285000D7812097B1F0BE018DEB91E00E94E21D7F
:10286000892B99F04AE050E060E070E0CE010E94D0
:10287000011E0FC066817781808591850E949D1B16
:1028800008C060E070E0CB0104C061E070E080E06F
:1028900090E0CB0102C080E090E0DF91CF910895FD
:1028A00002960C941707CF92DF92EF92FF921F933C
:1028B000CF93DF93CDB7DEB7C653D1400FB6F894B0
:1028C000DEBF0FBECDBF6C01CE0101960E94880312
:1028D000CB5CDE4FE881F981C553D140E280F380C3
:1028E0006CE671E0C7010E94D513892B09F44FC033
:1028F00064E671E0C7010E94D513009709F447C050
:10290000FC0184819581079709F041C06CE571E075
:10291000C7010E94D513FC01892B39F08481958170
:10292000079719F4E680F78003C00E94B6057C0182
:1029300067E571E0F701828193810E94D513892BAD
:1029400061F062E571E0C7010E94F913BC01C601A4
:1029500002960E948A0811E001C010E06BE471E069
:10296000F701828193810E94D513892B89F064E459
:1029700071E0C7010E94F913019764E670E00E94BC
:10298000901AC60102960E94640811E001C010E08E
:10299000812FCA5CDE4F0FB6F894DEBF0FBECDBFED
:1029A000DF91CF911F91FF90EF90DF90CF9008952E
:1029B0000F931F93CF93DF93EC018C010E5F1F4F9A
:1029C0008D85882351F0C8010E9474070E94F80C7D
:1029D0006E877F87888B998B05C0C8010E94A906E6
:1029E0008111F1CFDF91CF911F910F910895CF9376
:1029F000DF93EC012296CE010E94A90681111CC032
:102A0000CDE0D1E0FE016491611107C06EE971E093
:102A10008DE192E00E94E90F0EC0E0911D02F0915D
:102A20001E020190F081E02D8DE192E00995219642
:102A3000892B41F7EBCFFFCF60E170E0CE010E9420
:102A40008A0865E070E0CE01DF91CF910C946408B4
:102A5000CF93DF93EC0108969B838A838CE291E00D
:102A60009D838C831F821E828AE891E099838883EC
:102A7000CE010E94D705CC5CDE4F99838883DF911D
:102A8000CF910895EF92FF920F931F93CF93DF930F
:102A90000097C1F08B01EC010E94341F01967C016C
:102AA000D801ED91FC910190F081E02DBC01C801AD
:102AB00009958C01009731F0A701BE010E941B1FF0
:102AC000C80102C080E090E0DF91CF911F910F918B
:102AD000FF90EF900895CF93DF93EC0168817981A7
:102AE0008AE090E00E94C805009729F0FC0111825D
:102AF000108215821482EA81FB81309751F0208187
:102B000031812115310511F0F901F9CF91838083CD
:102B100002C09B838A83DF91CF910895CF92DF9289
:102B2000EF92FF920F931F93CF93DF938C017B0162
:102B30006A01FC01828193810E94D513EC01892BEB
:102B400091F4C8010E946B15EC01892B11F480E00F
:102B500026C0F80160817181C7010E94421500976B
:102B6000B1F39B838A83F6014081518157FD07C0F1
:102B7000052E000C660B770B84E090E009C05195A0
:102B800041955109052E000C660B770B85E090E00E
:102B90009D838C834E835F836887798781E0DF9193
:102BA000CF911F910F91FF90EF90DF90CF900895FC
:102BB000EF92FF920F931F93CF93DF938C01EB0162
:102BC0007A01DC0112968D919C9113970E94B913A2
:102BD000FC01892B41F4C8010E946B15FC01892B73
:102BE00089F0D383C283D7018D919C91A0E0B0E09E
:102BF00024E030E03583248386839783A087B187E0
:102C000081E001C080E0DF91CF911F910F91FF9093
:102C1000EF900895AF92BF92CF92DF92EF92FF9222
:102C20000F931F93CF93DF93FC01808191810097D5
:102C300061F4DF91CF911F910F91FF90EF90DF90A2
:102C4000CF90BF90AF900C94B6056B018F010E949E
:102C5000D7057C01B601F801828193810E94D513CA
:102C6000EC01892B81F4C8010E946B15EC01892BC2
:102C7000C9F0F80160817181C6010E944215009778
:102C800089F09B838A83F70180819181892B19F4D4
:102C900020E030E003C0570127E030E03D832C8383
:102CA000AE82BF82C701DF91CF911F910F91FF903C
:102CB000EF90DF90CF90BF90AF900895FC01A0817E
:102CC000B1818C918D3051F024F489508230B8F567
:102CD00005C0803219F08F3219F0089511962CC07A
:102CE00011968C9111978A3219F08F32D1F0089594
:102CF0001196B183A083A081B181CD01019691830A
:102D0000808311968C9111978823C9F08A3299F7A4
:102D100012968C9112978F3271F713960DC08A30EC
:102D200071F2A081B181CD010196918380831196CA
:102D30008C918111F4CF03C0B183A083C0CF0895DB
:102D40000F931F93CF93DF931F92CDB7DEB78C0104
:102D500069830E945E16D801ED91FC9111978081E4
:102D60006981861305C03196ED93FC9381E001C023
:102D700080E00F90DF91CF911F910F910895EF9216
:102D8000FF920F931F93CF93DF938C01DC01149676
:102D9000CD91DC911597EA80FB808E819F81E80EB2
:102DA000F91EC80102960E945E16D8011296ED9196
:102DB000FC9113979081973291F1923281F180EDDD
:102DC000890F8A3060F0892F8F7D81548A3138F0E5
:102DD0009B3229F083ED890F823008F060C0F80142
:102DE000228133812F5F3F4F338322832E813F81A6
:102DF000A9014F5F5F4F6C817D816417750740F0BB
:102E00006A817B81FB01E20FF31F5F834E83908316
:102E1000D8011296ED91FC9113979081D0CF319605
:102E2000D8011396FC93EE931297D8011296ED9168
:102E3000FC9113972081222391F1AF014F5F5F4FE7
:102E400013965C934E931297291749F12C35A9F4E8
:102E50002181A5EAB1E08C91882339F0821303C067
:102E600011962C9102C01296F6CF2223C1F0329611
:102E7000D8011396FC93EE9312974E815F81BA01AD
:102E80006F5F7F4FEC81FD81E617F70770F2EA81F3
:102E9000FB81E40FF51F7F836E832083C6CF8E8175
:102EA0009F819C012F5F3F4F4C815D8142175307EB
:102EB00048F04A815B81FA01E80FF91F3F832E83B6
:102EC000108202C0E12CF12CC701DF91CF911F913C
:102ED0000F91FF90EF9008959F92AF92BF92CF9283
:102EE000DF92EF92FF920F931F93CF93DF9300D067
:102EF00000D000D0CDB7DEB7D82EC92E082F192F9D
:102F0000F801819191918F010E94D7057C016BE7B7
:102F1000C8010E94A016882309F445C06DE7C801C6
:102F20000E94A016811142C086E0982E8D2D9C2D06
:102F30000E94BF165C01892BB1F16AE3C8010E94AF
:102F4000A016882381F11A821982BE016F5F7F4F1C
:102F50008D2D9C2D0E94590A882329F1B501F70176
:102F6000828193810E94B913009741F4C7010E94A6
:102F70006B150097C1F0FC01B382A282FE0131966D
:102F8000DC011496892D01900D928A95E1F76DE789
:102F9000C8010E94A016811109C06CE2C8010E94FC
:102FA000A0168111C3CF0E94B60501C0C7012696A5
:102FB0000FB6F894DEBF0FBECDBFDF91CF911F914A
:102FC0000F91FF90EF90DF90CF90BF90AF909F90C8
:102FD0000895CF93DF93CDB7DEB763970FB6F8941C
:102FE000DEBF0FBECDBF1C861B862AE731E03A87C5
:102FF00029877E876D872F852078206220682F871C
:103000001C821B8222E831E03A8329839E01275FDC
:103010003F4F3F832E831D82188628503109398BFC
:10302000288B1B8A1A8ABE01605F7F4F0E94C603ED
:103030008A899B8963960FB6F894DEBF0FBECDBF19
:10304000DF91CF910895EF92FF920F931F93CF934B
:10305000DF9300D000D000D0CDB7DEB77C018B016C
:1030600040E050E06FEA71E0C8010E947C0FF70178
:10307000808191811C821B8222E731E03A8329837F
:103080001E830D83BE016F5F7F4F0E94E917C80149
:1030900026960FB6F894DEBF0FBECDBFDF91CF915D
:1030A0001F910F91FF90EF9008958F929F92AF9292
:1030B000BF92CF92DF92EF92FF920F931F93CF9325
:1030C000DF93CDB7DEB7C056D1400FB6F894DEBF60
:1030D0000FBECDBF5C016B018C010E5F1F4FC8019D
:1030E0000E9417078823D9F34E0189EC881A8EEFC6
:1030F000980AB401C8010E94F602B601CE010196F9
:103100000E9488036FE871E0CB5CDE4F8881998173
:10311000C553D1400E940A1667E871E00E940A1662
:103120007C0160E871E0FC01828193810E94D513EB
:103130008C01892B91F4C7010E946B158C01892B9E
:1031400099F0F7016081718180E891E00E94421559
:10315000009751F0F8019383828382E090E0F801B8
:103160009583848397828682F50187819085C15AF1
:10317000DE4F99838883CF55D140AE01415A5E4FCF
:103180006BE771E0C7010E948E15F501858196817C
:10319000019644E6489F9001499F300D1124C15A81
:1031A000DE4F39832883CF55D140AE01415A5E4F5F
:1031B00064E771E0C7010E948E15B601CE018B5CF9
:1031C0009E4F0E942318C05ADE4F0FB6F894DEBF00
:1031D0000FBECDBFDF91CF911F910F91FF90EF9068
:1031E000DF90CF90BF90AF909F908F9008958F9277
:1031F0009F92AF92BF92EF92FF920F931F93CF9344
:10320000DF93CDB7DEB7CA53D1400FB6F894DEBF17
:103210000FBECDBFFC017B016289738984899589CA
:103220008C0122273327C75CDE4F19830883C953DB
:10323000D140C95CDE4F79836883C753D1400F3FCB
:10324000AFEF1A0761F06F3FAFEF7A0741F0A801C7
:10325000CF0102960E94ED054B015C0103C0812C59
:10326000912C5401B701CE0101960E9488036CE3B2
:1032700071E0CB5CDE4F88819981C553D1400E94BB
:103280000A1664E371E00E940A168C01AE01495CE3
:103290005E4F60EF71E00E94D815AE01475C5E4F53
:1032A00065EF71E0C8010E94D81568EF71E0F80180
:1032B000828193810E94B913FC01892B51F4C801CA
:1032C0000E946B15FC01892B61F088EF91E09383DC
:1032D000828384E090E09583848386829782A086AF
:1032E000B186B701CE018B5C9E4F0E942318C65C4D
:1032F000DE4F0FB6F894DEBF0FBECDBFDF91CF918A
:103300001F910F91FF90EF90BF90AF909F908F9083
:103310000895E1E1F2E01382128288EE93E0A0E0EA
:10332000B0E084839583A683B7832EE131E03183B7
:103330002083EDE1F2E01382128284839583A683D9
:10334000B7838EE291E09183808385EC90E095874E
:10335000848784EC90E09787868780EC90E0918B5F
:10336000808B81EC90E0938B828B82EC90E0958B4C
:10337000848B86EC90E0978B868B118E128E138E49
:10338000148E6FEA71E088EC92E00E94D40F6FEA2D
:1033900071E082EC92E00E94D40F6FEA71E08CEB56
:1033A00092E00E94D40F86E190E00E94DD1BFC01B8
:1033B00082E691E09183808386E491E09383828327
:1033C00015861682158280E190E0908787831186AA
:1033D000128613861486F093BB02E093BA02089516
:1033E000CF93DF9300D000D000D0CDB7DEB7789474
:1033F00084B5826084BD84B5816084BD85B58260FA
:1034000085BD85B5816085BD80916E0081608093AA
:103410006E00109281008091810082608093810013
:103420008091810081608093810080918000816023
:10343000809380008091B10084608093B10080917E
:10344000B00081608093B00080917A0084608093A6
:103450007A0080917A00826080937A0080917A006D
:10346000816080937A0080917A00806880937A00EE
:103470001092C1000E948B118091BA029091BB0200
:10348000DC01ED91FC910480F581E02D0995882304
:1034900009F18091BA029091BB02DC01ED91FC919F
:1034A0000680F781E02D6CEB72E009958091BA02FD
:1034B0009091BB02DC01ED91FC910280F381E02D43
:1034C000099508C0CE0101960E942412CE010196F2
:1034D0000E94CF0F8DE192E00E94D60D18161906BA
:1034E00084F46FEA71E0CE0101960E94D40F0E942D
:1034F000040D97FDE7CF682FCE0101960E944C0F77
:10350000F6CF0E94760EB8CF8CEB92E00E94CF0FE0
:1035100082EC92E00E94CF0F88EC92E00C94CF0FE7
:1035200097FB072E16F4009407D077FD09D00E9470
:10353000AA1A07FC05D03EF4909581959F4F0895F7
:10354000709561957F4F0895EE0FFF1F0590F491E0
:10355000E02D0994AA1BBB1B51E107C0AA1FBB1F8A
:10356000A617B70710F0A61BB70B881F991F5A950F
:10357000A9F780959095BC01CD0108955058BB27BF
:10358000AA270E94D61A0C942A200E941C2038F0E8
:103590000E94232020F039F49F3F19F426F40C9464
:1035A00019200EF4E095E7FB0C941320E92F0E94FC
:1035B0003B2058F3BA17620773078407950720F07A
:1035C00079F4A6F50C945D200EF4E0950B2EBA2F3D
:1035D000A02D0B01B90190010C01CA01A001112419
:1035E000FF27591B99F0593F50F4503E68F11A16C5
:1035F000F040A22F232F342F4427585FF3CF469556
:1036000037952795A795F0405395C9F77EF41F1677
:10361000BA0B620B730B840BBAF09150A1F0FF0F41
:10362000BB1F661F771F881FC2F70EC0BA0F621F2D
:10363000731F841F48F4879577956795B795F7951D
:103640009E3F08F0B0CF9395880F08F09927EE0FB2
:103650009795879508950E943F1B0C942A200E94FD
:10366000232058F00E941C2040F029F45F3F29F0ED
:103670000C94132051110C945E200C9419200E947C
:103680003B2068F39923B1F3552391F3951B550B18
:10369000BB27AA2762177307840738F09F5F5F4F25
:1036A000220F331F441FAA1FA9F335D00E2E3AF064
:1036B000E0E832D091505040E695001CCAF72BD07C
:1036C000FE2F29D0660F771F881FBB1F26173707CD
:1036D0004807AB07B0E809F0BB0B802DBF01FF27FF
:1036E00093585F4F3AF09E3F510578F00C941320A9
:1036F0000C945E205F3FE4F3983ED4F38695779573
:103700006795B795F7959F5FC9F7880F911D9695B7
:10371000879597F90895E1E0660F771F881FBB1F13
:10372000621773078407BA0720F0621B730B840BC0
:10373000BA0BEE1F88F7E09508950E94A41B6894C9
:10374000B1110C945E2008950E94432088F09F5789
:1037500098F0B92F9927B751B0F0E1F0660F771FB5
:10376000881F991F1AF0BA95C9F714C0B13091F0AB
:103770000E945D20B1E008950C945D20672F782FA2
:103780008827B85F39F0B93FCCF386957795679570
:10379000B395D9F73EF490958095709561957F4FDC
:1037A0008F4F9F4F08950E94821F08F48FEF089556
:1037B0000E94821F880B990B0895CF93DF9382306C
:1037C000910510F482E090E0E0919003F091910374
:1037D00020E030E0C0E0D0E0309711F1408151812D
:1037E00048175907C0F04817590761F4828193813F
:1037F000209719F09B838A832BC090939103809329
:10380000900326C02115310519F04217530718F40B
:103810009A01BE01DF01EF010280F381E02DDCCFD0
:103820002115310509F1281B390B2430310590F49D
:1038300012968D919C9113976115710521F0FB01F2
:103840009383828304C09093910380939003FD013E
:10385000329644C0FD01E20FF31F819391932250F1
:1038600031092D933C933AC020918E0330918F0300
:10387000232B41F4209102013091030130938F03F7
:1038800020938E0320910001309101012115310513
:1038900041F42DB73EB74091040150910501241B1E
:1038A000350BE0918E03F0918F03E217F307A0F43C
:1038B0002E1B3F0B2817390778F0AC014E5F5F4F86
:1038C0002417350748F04E0F5F1F50938F03409326
:1038D0008E038193919302C0E0E0F0E0CF01DF918D
:1038E000CF9108950F931F93CF93DF93009709F41F
:1038F0008CC0FC01329713821282009190031091C8
:1039000091030115110581F420813181820F931FEC
:1039100020918E0330918F032817390779F5F093A2
:103920008F03E0938E0371C0D80140E050E0AE17E2
:10393000BF0750F412962D913C911397AD012115BC
:10394000310509F1D901F3CF9D01DA0133832283D7
:1039500060817181860F971F8217930769F4EC01CC
:1039600028813981260F371F2E5F3F4F31832083F7
:103970008A819B8193838283452B29F4F093910361
:10398000E093900342C01396FC93EE931297ED01DF
:10399000499159919E01240F351FE217F30771F4E5
:1039A00080819181840F951F029611969C938E932E
:1039B0008281938113969C938E931297E0E0F0E0BE
:1039C000D80112968D919C911397009719F0F801E8
:1039D0008C01F6CF8D919C9198012E5F3F4F820F05
:1039E000931F20918E0330918F032817390769F4B4
:1039F000309729F4109291031092900302C0138221
:103A0000128210938F0300938E03DF91CF911F9149
:103A10000F910895A0E0B0E0E0E1FDE10C94A52055
:103A2000EC01009721F4CB010E94DD1BB8C0FC0122
:103A3000E60FF71F9C0122503109E217F30708F443
:103A4000ACC0D9010D911C91119706171707B0F062
:103A50000530110508F49FC0C80104978617970721
:103A600008F499C002501109061B170B019311931A
:103A70006D937C93CF010E94721C8DC05B01A01AD4
:103A8000B10A4C01800E911EA0919003B091910358
:103A900040E050E0E12CF12C109709F44AC0A81541
:103AA000B905D1F56D907C901197630182E0C80E45
:103AB000D11CCA14DB0480F1A3014A195B096A0115
:103AC00082E0C80ED11C1296BC9012971396AC914E
:103AD000B5E0CB16D10440F0B282A383518340837A
:103AE000D9016D937C930AC00E5F1F4FC301800FF5
:103AF000911FF90191838083EB2DFA2FE114F104DA
:103B000031F0D7011396FC93EE93129744C0F093D3
:103B10009103E09390033FC08D919C9111974817BA
:103B2000590708F4AC017D0112960D90BC91A02DAF
:103B3000B3CF80918E0390918F0388159905E1F49E
:103B400046175707C8F48091000190910101009732
:103B500041F48DB79EB74091040150910501841B3B
:103B6000950BE817F907C8F4F0938F03E0938E03E1
:103B7000F901718360830FC0CB010E94DD1B7C01C2
:103B8000009759F0A801BE010E94D91DCE010E94E4
:103B9000721CC70104C0CE0102C080E090E0CDB726
:103BA000DEB7EEE00C94C12081E090E0F8940C9434
:103BB000E720FB01DC0102C001900D924150504012
:103BC000D8F70895FB01DC018D9101908019011057
:103BD000D9F3990B0895FB01DC0101900D920020AF
:103BE000E1F70895FB01DC014150504048F001909D
:103BF0000D920020C9F701C01D9241505040E0F7DE
:103C00000895A0E0B0E0E7E0FEE10C94A1205C01A3
:103C10006B017A016115710519F0FB0191838083B5
:103C2000E114F10429F0C7010297839708F0F1C06D
:103C3000E5012196F5011081812F90E00E94121F6D
:103C4000892B11F05E01F4CF1D3229F42196F50184
:103C5000118101E007C01B3221F4E5012296F50134
:103C6000118100E0E114F10459F1F0E1EF16F104E3
:103C700061F41033E1F488818F7D883569F519810D
:103C80002296026070E1E72EF12C88E0E816F1043C
:103C900039F12CF4F2E0EF16F104C9F12AC08AE000
:103CA000E816F10479F0E0E1EE16F10411F550E1C7
:103CB000E52EF12C812C912CA12C68E0B62E2CC085
:103CC0001033C9F23AE0E32EF12C4CEC842E982C00
:103CD000A82C4CE0B42E20C010E3E114F104A9F6A6
:103CE00098E0E92EF12C812C912CA12C20E1B22E10
:103CF00013C060E070E080E090E897010F2C000CAA
:103D0000440B550B0E94742049015A0105C0812CB7
:103D1000912CA12C80E4B82E60E020E030E0A901D5
:103D200027010F2C000C660877081E01E0EDE10F5B
:103D3000EA3060F08FEB810F8A3110F4E9EC05C0B6
:103D40008FE9810F8A3128F5E9EAE10F8E2F90E0A3
:103D50008E159F05F4F467FD18C082169306A4061D
:103D6000B50690F0C301B2010E9464209B01AC0132
:103D70002E0F311D411D511D213031054105F0E847
:103D80005F0710F461E001C06FEF2196F10110812F
:103D9000CCCF802F8170C114D10471F0662329F03B
:103DA0002197F601D183C08307C001FF19C0229774
:103DB000F601D183C08314C067FF12C0811105C012
:103DC0002FEF3FEF4FEF5FE704C020E030E040E02F
:103DD00050E882E290E0909393038093920316C0A0
:103DE000882341F050954095309521953F4F4F4F96
:103DF0005F4F0CC057FF0AC082E290E0909393039C
:103E0000809392032FEF3FEF4FEF5FE7B901CA01B5
:103E100004C060E070E080E090E0CDB7DEB7E2E1A2
:103E20000C94BD2091110C943D1F803219F08950E3
:103E30008550C8F70895FB01DC0102C005900D9282
:103E400041505040D8F70895FB01DC018D91059059
:103E500080190110D9F3990B0895FB01DC0105903D
:103E60000D920020E1F70895FC0105900020E9F78C
:103E7000809590958E0F9F1F089599278827089504
:103E80000E94821F08F481E00895E89409C097FB1E
:103E90003EF490958095709561957F4F8F4F9F4F21
:103EA0009923A9F0F92F96E9BB279395F695879565
:103EB00077956795B795F111F8CFFAF4BB0F11F428
:103EC00060FF1BC06F5F7F4F8F4F9F4F16C08823CF
:103ED00011F096E911C0772321F09EE8872F762F05
:103EE00005C0662371F096E8862F70E060E02AF046
:103EF0009A95660F771F881FDAF7880F9695879532
:103F000097F90895990F0008550FAA0BE0E8FEEF06
:103F100016161706E807F907C0F012161306E4078D
:103F2000F50798F0621B730B840B950B39F40A2686
:103F300061F0232B242B252B21F408950A2609F464
:103F4000A140A6958FEF811D811D08950E94B91F84
:103F50000C942A200E941C2038F00E94232020F07C
:103F6000952311F00C9413200C94192011240C9417
:103F70005E200E943B2070F3959FC1F3950F50E0A7
:103F8000551F629FF001729FBB27F00DB11D639F0B
:103F9000AA27F00DB11DAA1F649F6627B00DA11DB1
:103FA000661F829F2227B00DA11D621F739FB00D57
:103FB000A11D621F839FA00D611D221F749F3327C7
:103FC000A00D611D231F849F600D211D822F762F60
:103FD0006A2F11249F5750409AF0F1F088234AF03D
:103FE000EE0FFF1FBB1F661F771F881F91505040A9
:103FF000A9F79E3F510580F00C9413200C945E208D
:104000005F3FE4F3983ED4F3869577956795B7952F
:10401000F795E7959F5FC1F7FE2B880F911D969549
:10402000879597F9089597F99F6780E870E060E0B9
:1040300008959FEF80EC089500240A941616170641
:1040400018060906089500240A9412161306140689
:1040500005060895092E0394000C11F4882352F0EC
:10406000BB0F40F4BF2B11F460FF04C06F5F7F4FA4
:104070008F4F9F4F089557FD9058440F551F59F08B
:104080005F3F71F04795880F97FB991F61F09F3F45
:1040900079F087950895121613061406551FF2CF6E
:1040A0004695F1DF08C0161617061806991FF1CFBE
:1040B00086957105610508940895E894BB276627E5
:1040C0007727CB0197F90895DB018F939F930E9487
:1040D0009620BF91AF91A29F800D911DA39F900D3F
:1040E000B29F900D11240895A1E21A2EAA1BBB1BAA
:1040F000FD010DC0AA1FBB1FEE1FFF1FA217B307B4
:10410000E407F50720F0A21BB30BE40BF50B661FC9
:10411000771F881F991F1A9469F76095709580958D
:1041200090959B01AC01BD01CF0108950E94D8205C
:10413000A59F900DB49F900DA49F800D911D1124FB
:1041400008952F923F924F925F926F927F928F923B
:104150009F92AF92BF92CF92DF92EF92FF920F9316
:104160001F93CF93DF93CDB7DEB7CA1BDB0B0FB620
:10417000F894DEBF0FBECDBF09942A8839884888DD
:104180005F846E847D848C849B84AA84B984C88473
:10419000DF80EE80FD800C811B81AA81B981CE0F6A
:1041A000D11D0FB6F894DEBF0FBECDBFED0108954F
:1041B000A29FB001B39FC001A39F700D811D112468
:1041C000911DB29F700D811D1124911D089510E065
:1041D000CDECD0E004C0FE010E94A41A2196CE3C92
:0841E000D107C9F7F894FFCFE5
:1041E800000094038000000048430000964300004C
:1041F800C8430000FA4300001644000000003E09CE
:104208000E090609F208E308E208000000000D0E96
:10421800890DD60DB40DC80D540E00000000800E97
:10422800890D00000000A806F4029201FB07F602BF
:1042380000000000000000009201800E800E0000C7
:104248000000F714D8145014F71855185314000028
:104258000000F113890D000000004601890D0000DF
:104268000000AF01890D00000000F8000000000008
:10427800F80000000000800E00000000800E0D0A0B
:104288000022225C5C6208660C6E0A720D740900DA
:104298006E756C6C0054534C32353931007472753C
:1042A800650066616C7365004E614E00496E666913
:1042B8006E69747900652D00696400636D64006936
:1042C8006E666F006461746100726573756C74006A
:0C42D80066756C6C006972006C757800F3
:00000001FF
