:100000000C9461000C9489000C9489000C94890074
:100010000C9489000C9489000C9489000C9489003C
:100020000C9489000C9489000C9489000C9489002C
:100030000C9489000C9489000C9489000C9489001C
:100040000C94C80D0C9489000C94CB100C94A51042
:100050000C9489000C9489000C9489000C948900FC
:100060000C942F0C0C948900D4069D058805AB05D3
:10007000A505A10544057405000000002500280021
:100080002B00040404040404040402020202020219
:10009000030303030303010204081020408001024C
:1000A00004081020010204081020000000080002CB
:1000B00001000003040700000000000000003A19DE
:1000C000421A11241FBECFEFD8E0DEBFCDBF12E031
:1000D000A0E0B1E0E0E6FEE302C005900D92A23D93
:1000E000B107D9F724E0A2EDB2E001C01D92A83615
:1000F000B207E1F710E0C0E6D0E004C02197FE01AE
:100100000E94701ACF35D107C9F70E94A1190C942B
:10011000231F0C940000FC0126813781620F731F9E
:10012000848195818617970738F082819381778340
:100130006683820F931F089580E090E008958130D8
:1001400051F0E8F0823061F0833079F46FE672E1CB
:1001500083E89AE308956DEC7CEC8CEC9DE30895C4
:100160006AE077ED83E29CE3089584500E949F004B
:1001700027E137EB41ED58E30E941F1E089560E030
:1001800070E080E89FE30895CF93DF93EC018881CE
:100190009981DC01ED91FC910190F081E02D0995B0
:1001A0002A813B81820F931F9B838A83DF91CF91AA
:1001B0000895DF92EF92FF920F931F93CF93DF93F7
:1001C000EC01D62E8E8187FD03C000E010E01FC039
:1001D000E12CF12C00E010E09E81892F8F70929528
:1001E0009770899FC0011124E816F90684F48C8168
:1001F0009D81DC01ED91FC910190F081E02D60E2A8
:100200000995080F191FBFEFEB1AFB0AE5CF8C8188
:100210009D81DC01ED91FC910190F081E02D6D2D2F
:100220000995AC0121E0BAE0DB1220E09E8120FBC1
:1002300097F99E83CA01800F911FDF91CF911F9183
:100240000F91FF90EF90DF9008954F925F926F9221
:100250007F928F929F92AF92BF92CF92DF92EF9256
:10026000FF920F931F93CF93DF93DC018B01EA0181
:1002700013962D913C911497215031092530310569
:1002800060F4220F331F220F331FF901EA5FFE4F84
:10029000608171818281938104C060E070E088ECAC
:1002A00092E415962D913C9116972032310559F024
:1002B0002033310569F02031310579F420E030E058
:1002C00048EC51E40EC020E030E046ED53E409C0B4
:1002D00020E030E54AE156E404C020E030E040E8A8
:1002E0005FE30E941F1E20E030E04CEC53E40E94CC
:1002F000E31A6B017C01B80180E090E00E94BE1D12
:100300002B013C01BE0180E090E00E94BE1D4B012C
:100310005C0125E83BEE41ED5FE30E941F1E9B015F
:10032000AC01C301B2010E94761AA70196010E9496
:10033000E31A162FD72FC82F092F2DE33AE047E1F4
:100340005FE3C301B2010E941F1E2B013C0126EF97
:1003500038E24CE55FE3C501B4010E941F1E9B011A
:10036000AC01C301B2010E94761AA70196010E9456
:10037000E31A6B017C019B01AC01612F7D2F8C2F57
:10038000902F0E948B1B181624F01C2DDD2DCE2DD6
:100390000F2D612F7D2F8C2F902F0E945C1BDF91E2
:1003A000CF911F910F91FF90EF90DF90CF90BF9072
:1003B000AF909F908F907F906F905F904F90089537
:1003C00008950C942A1C0F931F93CF93DF938C01F5
:1003D000EB0188E2FB0111928A95E9F74BE050E0CE
:1003E0006EE971E0CE010E94AA1D1B8681E090E0BB
:1003F000A0E0B0E08C879D87AE87BF87F80187813A
:100400009085A185B285888B998BAA8BBB8B85E063
:1004100090E0A0E0B0E08C8B9D8BAE8BBF8B1CA2DC
:100420001DA21EA21FA280E090EEABEAB7E4888F67
:10043000998FAA8FBB8F1C8E1D8E1E8E1F8E80E003
:1004400090E0A0E8BFE388A399A3AAA3BBA3DF9190
:10045000CF911F910F910895CF93DF931F92CDB746
:10046000DEB781E08093E30289E28093E502109297
:10047000E4021092E60287EE92E049830E94B809F6
:100480004981642F87EE92E00E94B80981E00F90C5
:10049000DF91CF910C94E709CF93DF9381E08093B4
:1004A000E30289E28093E5021092E4021092E602F0
:1004B00087EE92E00E94B80981E00E94E70982E09D
:1004C00090E00E94440A87EE92E00E946C09EC01E1
:1004D00087EE92E00E946C0920E030E0382FC901DD
:1004E0008C2B9D2BDF91CF9108950F931F93CF936A
:1004F000DF93CDB7DEB727970FB6F894DEBF0FBEF8
:10050000CDBF8C010896F801938382838CE291E041
:1005100095838483178216828AE891E09183808391
:10052000FB0180819181009711F483ED91E01A83A2
:1005300009839C838B831E830D838AE08F83CE0186
:1005400001960E941817F801EC5CFE4F918380839E
:1005500027960FB6F894DEBF0FBECDBFDF91CF91C7
:100560001F910F9108958F929F92AF92BF92EF9239
:10057000FF920F931F93CF93DF93CDB7DEB7CA538C
:10058000D1400FB6F894DEBF0FBECDBF7C01FB019A
:100590008A0162897389848995894C01AA24BB24C4
:1005A000C75CDE4F99828882C953D140C95CDE4F57
:1005B00079836883C753D1404FEF8416940661F066
:1005C0006F3F4FEF740741F0A401CF0102960E94E4
:1005D00025014B015C0103C0812C912C5401B80111
:1005E000CE0101960E94750266EA71E0CB5CDE4F97
:1005F00088819981C553D1400E94C0156EEA71E08F
:100600000E94C0158C01AE01495C5E4F66EB71E043
:100610000E948E15AE01475C5E4F6BEB71E0C80126
:100620000E948E156EEB71E0F801828193810E9429
:100630006E13FC01892B51F4C8010E948A13FC013E
:10064000892B61F08EEB91E09383828384E090E0CC
:100650009583848386829782A086B186BE016B5C77
:100660007E4FC7010E943F13C701C65CDE4F0FB625
:10067000F894DEBF0FBECDBFDF91CF911F910F91D8
:10068000FF90EF90BF90AF909F908F9008958091D2
:10069000D60281110BC01092D3021092D202109296
:1006A000D5021092D40281E08093D60282ED92E0CE
:1006B0000895DB01109749F0ED91FC91119701909D
:1006C000F081E02DBC01CD01099480E090E0089517
:1006D000CF93DF93EC01BC0184E090E00E945903CA
:1006E000009741F0FC01D183C08313821282DF9115
:1006F000CF910895DF91CF910C9447036115710557
:1007000079F0FB0101900020E9F73197AF01461B1A
:10071000570BDC01ED91FC910280F381E02D0994EF
:1007200080E090E00895FC0194819F7D9B35A1F4C9
:100730000580F681E02D3681932F9F709F3039F030
:100740009F5F292F2F70932F907F922B968362ECBF
:1007500071E0CF010C947E0380E090E00895FF9259
:100760000F931F93CF93DF938C01F62EDC01179626
:100770008C918823B1F0B2E26B1305C0F80184813B
:100780008C3509F0A5C0D80115968D919C911697CE
:10079000DC01ED91FC910190F081E02D6F2D099528
:1007A0008FC0BBE56B1751F1B617F0F0ECE26E1796
:1007B00009F461C0FAE36F1709F446C082E26813D6
:1007C0006EC081E0D80117968C93C8010E949303F4
:1007D000EC01F80185819681DC01ED91FC9101909D
:1007E000F081E02D62E269C0ABE76A1739F0BDE73E
:1007F0006B1741F0EDE56E1352C004C0C8010E94B2
:1008000093031BC0F80184818F7D8B3519F4C0E000
:10081000D0E014C00580F681E02D3681932F9F70C3
:1008200039F0915F292F2F70932F907F922B968311
:1008300062EC71E0CF010E947E03EC01D8011596B5
:100840008D919C91169732C0F80185819681DC01CB
:10085000ED91FC910190F081E02D6AE30995EC01A6
:10086000F80185819681DC01ED91FC910190F08188
:10087000E02D60E222C0F80185819681DC01ED91D6
:10088000FC910190F081E02D6CE20995EC0162ECA5
:1008900071E0F801858196810E947E030FC0C80136
:1008A0000E949303EC01F80185819681DC01ED91B2
:1008B000FC910190F081E02D6F2D09958C0F9D1F0B
:1008C000F801F482DF91CF911F910F91FF9008956D
:1008D000178259CFCF93DF93EC01888199810E94D1
:1008E0007E032A813B81820F931F9B838A83DF9142
:1008F000CF9108958F929F92AF92BF92EF92FF9205
:100900000F931F93CF93DF93CDB7DEB766970FB6E4
:10091000F894DEBF0FBECDBF7C011E8A8E010A5E39
:100920001F4F8AE0882E912CA12CB12CCB01BA014B
:10093000A50194010E944E1A942F852F605DF80145
:1009400062938F01A901692F782F41155105610527
:10095000710561F7BF01C7010E946A0466960FB670
:10096000F894DEBF0FBECDBFDF91CF911F910F91E5
:10097000FF90EF90BF90AF909F908F900895FF925F
:100980000F931F93CF93DF936115710549F464EDC5
:1009900071E0DF91CF911F910F91FF900C946A0449
:1009A0008B01EC0162E2CE010E94C400F80161916A
:1009B0008F01662351F0E5ECF1E0F080FF2099F320
:1009C0009181961759F03296F8CF62E2CE01DF910D
:1009D000CF911F910F91FF900C94C4006CE5CE0154
:1009E0000E94C4006F2DDFCF0F931F93CF93DF932F
:1009F0008C01EB016BE7CE010E94C400F80102817B
:100A0000138101151105A9F0F80162817381CE01EE
:100A10000E94BF046AE3CE010E94C400BE01C80167
:100A200004960E942605F801008111810115110527
:100A300041F46DE7CE01DF91CF911F910F910C949E
:100A4000C4006CE2CE010E94C400DBCF4F925F92E3
:100A50006F927F929F92AF92BF92CF92DF92EF926E
:100A6000FF920F931F93CF93DF938C01EB01FC0157
:100A7000A080B180F8E0AF16B10408F07BC0F501AA
:100A8000EC5CFF4F0C94701AFC01028113816BE542
:100A9000CE010E94C400F8010281138101151105E5
:100AA00059F0BE01C80102960E942605F801008196
:100AB00011810115110599F46DE5CE01DF91CF91FA
:100AC0001F910F91FF90EF90DF90CF90BF90AF906C
:100AD0009F907F906F905F904F900C94C4006CE259
:100AE000CE010E94C400DACFFC0182819381DF91A4
:100AF000CF911F910F91FF90EF90DF90CF90BF901B
:100B0000AF909F907F906F905F904F900C94F40403
:100B1000FC0162817381CE01DF91CF911F910F9112
:100B2000FF90EF90DF90CF90BF90AF909F907F901D
:100B30006F905F904F900C94BF04FC0162817381B1
:100B400057C06DE2CE010E94C400F801428153817A
:100B50006481758117C1FC0182819381A481B58173
:100B6000892B8A2B8B2B19F46EED71E041C069ED56
:100B700071E03EC088EF982E9A0CF801C280D380B5
:100B8000E480F580A7019601C701B6010E94901B81
:100B9000882319F064EE71E02BC020E030E0A90159
:100BA000C701B6010E94B91D87FF08C06DE2CE01E2
:100BB0000E94C400F7FAF094F7F8F0942601370188
:100BC000E89477F82FEF3FEF4FE75FE7C301B201FB
:100BD0000E94901B81111EC02FEF3FEF4FE75FE790
:100BE000C301B2010E94B91D1816A4F468EE71E0A9
:100BF000CE01DF91CF911F910F91FF90EF90DF9089
:100C0000CF90BF90AF909F907F906F905F904F90EC
:100C10000C946A0420E030E04AE754E4C701B601CE
:100C20000E948B1B00E010E018160CF12FE632E159
:100C300043E85AE3C701B6010E94B91D87FF37C0D8
:100C400016C020E030E040E85FE3C701B6010E9433
:100C5000B91D87FF15C00150110920E030E040E2C6
:100C600051E4C701B6010E941F1E6B017C0120E008
:100C700030E0A901C701B6010E94B91D8111E1CF81
:100C800020E030E040E251E4C701B6010E948B1B36
:100C900018166CF40F5F1F4F20E030E040E251E483
:100CA000C701B6010E94E31A6B017C01E9CF892DCF
:100CB0000E949F0020E030E040E05FE30E941F1EA2
:100CC0009B01AC01C701B6010E94771A2B013C01C0
:100CD0000E945C1B6B017C010E94BE1D9B01AC014C
:100CE000C301B2010E94761A2B013C01B701A60193
:100CF000CE010E947A04992021F06EE2CE010E947A
:100D0000C400F8E0AF1619F120E030E040E251E411
:100D1000C301B2010E941F1E2B013C010E94551B02
:100D2000F62E062E000C770B880B990B0E94C01D27
:100D30009B01AC01C301B2010E94761A2B013C0158
:100D400060E36F0DCE010E94C400AA94DACF17FFB2
:100D50000EC061EF71E0CE010E946A04442755275E
:100D6000401B510B052E000C660B770B0BC00115B9
:100D70001105D1F065E6CE010E94C400A801110F53
:100D8000660B770BCE01DF91CF911F910F91FF90F2
:100D9000EF90DF90CF90BF90AF909F907F906F903B
:100DA0005F904F900C947A04DF91CF911F910F9137
:100DB000FF90EF90DF90CF90BF90AF909F907F908B
:100DC0006F905F904F90089508950F931F93CF9366
:100DD000DF93EC01162F072F8B85882391F0CE012E
:100DE0000E94D9071D830E834B81412B61EACE01FE
:100DF0000E942C02CE01DF91CF911F910F910C9494
:100E00006407CE010E940B078111E9CFDF91CF91DA
:100E10001F910F9108951F93CF93DF93EC011092D0
:100E2000DF021092DE021092E4021092E6021092AB
:100E3000E20211E01093E1021092E00282E10E94CE
:100E40008D0A83E10E948D0A8091B9008E7F809384
:100E5000B9008091B9008D7F8093B90088E48093B8
:100E6000B80085E48093BC001093E30289E280938C
:100E7000E5021092E4021092E60262EB87EE92E045
:100E80000E94B80981E00E94E70981E090E00E9499
:100E9000440A87EE92E00E946C09803581F41B873A
:100EA0006B817C81CE010E94E8086D817E81CE013C
:100EB0000E94E506CE010E94640781E001C080E047
:100EC000DF91CF911F910895CF93DF93EC018B8534
:100ED000882339F040E060EACE01DF91CF910C9495
:100EE0002C02CE010E940B078111F4CFDF91CF912C
:100EF00008958F929F92AF92BF92CF92DF92EF921E
:100F0000FF92CF93DF93EC010E94820D4B015C01B5
:100F1000CC84DD84EE84FF846C157D058E059F05F1
:100F200028F46C877D878E879F8734C02B813C8116
:100F3000A8E7B0E00E94141FC60ED71EE81EF91ED7
:100F4000C814D904EA04FB0428F566EBCE010E941C
:100F50004C02A0E0B0E0DC0199278827888B998BB0
:100F6000AA8BBB8B64EBCE010E944C02AC0160E00B
:100F700070E088899989AA89BB89842B952BA62B37
:100F8000B72B888B998BAA8BBB8BCE010E946407F1
:100F900081E001C080E0DF91CF91FF90EF90DF9082
:100FA000CF90BF90AF909F908F90089502960C9431
:100FB0007907CF93DF93EC018B85882339F043E9E0
:100FC00060EACE01DF91CF910C942C02CE010E94F9
:100FD0000B078111F4CFDF91CF9108950F931F93E9
:100FE000CF93DF93EC018C010E5F1F4F8D8588231B
:100FF00051F0C8010E94D9070E94820D6E877F8739
:10100000888B998B05C0C8010E940B078111F1CF15
:10101000DF91CF911F910F9108958F929F92AF9280
:10102000BF92CF92DF92EF92FF921F93CF93DF9305
:10103000EC018B85882329F0CE010E94D90710E0AE
:1010400027C0CE010E940B078111F6CF60E070E04F
:1010500090E049C00E945D0DDC01CB01881999091F
:10106000AA09BB09883E9340A105B10558F021E0CB
:10107000C21AD108E108F10888EE880E83E0981EB4
:10108000A11CB11CC114D104E104F10419F71F5FC4
:10109000812F90E02B813C812817390754F00E9462
:1010A0005D0D4B015C0198E7C92ED12CE12CF12C90
:1010B000D1CF66EBCE010E944C026C01E12CF12CE9
:1010C0007601DD24CC2464EBCE010E944C02AC01FD
:1010D00060E070E0C42AD52AE62AF72ACE010E94F1
:1010E0006407B601C701DF91CF911F91FF90EF9088
:1010F000DF90CF90BF90AF909F908F9008954F92C8
:101100005F926F927F928F929F92AF92BF92CF9297
:10111000DF92EF92FF920F931F93CF93DF938C0197
:10112000EB010E940D08C8010E940D086B017C01B3
:1011300027016624772484E2FE0111928A95E9F75B
:1011400084E290E0A0E0B0E088839983AA83BB8327
:10115000F80187819085A185B2858C839D83AE83BC
:10116000BF8385E090E0A0E0B0E088879987AA87F8
:10117000BB870E94820D688B798B8A8B9B8BFFEFDC
:101180004F165F0651F08FEFC816D80631F0A20156
:10119000B601C8010E94250103C060E070E0CB01E8
:1011A0000E94BE1D6C8B7D8B8E8B9F8B81E0DF91AF
:1011B000CF911F910F91FF90EF90DF90CF90BF9054
:1011C000AF909F908F907F906F905F904F90089519
:1011D0000F931F93CF93DF93EC01162F072F8B856F
:1011E000882391F0CE010E94D9071B830C834D8187
:1011F000412B61EACE010E942C02CE01DF91CF91FA
:101200001F910F910C946407CE010E940B0781116E
:10121000E9CFDF91CF911F910F910895CF93DF9385
:10122000EC012296CE010E940B07811107C064EFEA
:1012300071E083EF92E00E947E03FFCF60E170E0F7
:10124000CE010E94E50665E070E0CE01DF91CF910E
:101250000C94E80885ED8093BC008091BC0084FD6F
:10126000FCCF1092E20208954091CF03262F30E088
:10127000240F311D21323105DCF42091E2022430AB
:10128000C9F4FC0180E090E0861758F43091CF0358
:101290002191DC01A355BC4FA30FB11D2C930196E6
:1012A000F3CF8091CF03680F6093CF0380E0089560
:1012B00081E0089582E008950895E091DF02809131
:1012C000DE02E81730F4F0E0E050FC4F808190E05F
:1012D00008958FEF9FEF08959091DF028091DE02D5
:1012E000981750F4E92FF0E0E050FC4F208130E0F7
:1012F0009F5F9093DF0202C02FEF3FEFC901089577
:101300008091DE0290E02091DF02821B9109089516
:10131000CF92DF92EF92FF920F931F93CF93DF93C1
:101320007C01262F972F8A018091E302882391F078
:10133000C62FD72F6E01C40ED51ECC15DD0571F05A
:101340006991D701ED91FC910190F081E02DC701E9
:101350000995F3CF642F822F0E943409C801DF91D1
:10136000CF911F910F91FF90EF90DF90CF90089554
:10137000CF93DF931F92CDB7DEB769832091E3024D
:101380002223D1F02091E602203240F021E030E02B
:10139000FC013383228380E090E015C08091E40259
:1013A000E82FF0E0EC5BFB4F998190838F5F809397
:1013B000E4028093E60205C061E0CE0101960E943E
:1013C000340981E090E00F90DF91CF910895382F9C
:1013D0002091E6029091E502213208F049C0809107
:1013E000E2028111FCCF42E04093E2023093E1023D
:1013F0003FEF309343041092420420934104A4E44D
:10140000B4E041E254E0FA013E2F341B321718F4E5
:101410003D913193F9CF1092200420912004990F2F
:10142000922B909320049091E002913061F41092FD
:10143000E002909120049093BB009091BC0093FD3A
:10144000F8CF95EC01C095EE9093BC009091E2022C
:101450009230E1F3909143049F3F79F080914304EF
:10146000803241F080914304803331F084E005C044
:1014700081E003C082E001C083E01092E402109298
:10148000E6021092E30208959091E2029111FCCFDE
:10149000813208F080E291E09093E2029093E102C1
:1014A0002FEF2093430410924204280F209341040D
:1014B0009093200490912004926590932004909141
:1014C000E002913061F41092E00290912004909338
:1014D000BB009091BC0093FDF8CF95EC01C095EE58
:1014E0009093BC009091E2029130E1F3909142041C
:1014F000981710F480914204A1E2B4E020E034E0B7
:10150000F9019E2F921B981718F49D919193F9CF92
:101510001092DF028093DE02089590E0FC01E65510
:10152000FF4F2491FC01EA56FF4F3491FC01EE5726
:10153000FF4FE491EE23B1F1222339F1233091F0F2
:1015400038F42130A9F0223001F584B58F7D12C026
:10155000273091F02830A1F02430B9F48091800038
:101560008F7D03C0809180008F77809380000DC0B5
:1015700084B58F7784BD09C08091B0008F7703C098
:101580008091B0008F7D8093B000F0E0EE0FFF1FE0
:10159000E858FF4FA591B4918FB7F894EC913E2B8A
:1015A0003C938FBF0895CF93DF93CDB7DEB763979A
:1015B0000FB6F894DEBF0FBECDBF1C861B8626E299
:1015C00031E03A8729877E876D872F8520782062D2
:1015D00020682F871C821B822EE131E03A83298309
:1015E0009E01275F3F4F3F832E831D821886285020
:1015F0003109398B288B1B8A1A8ABE01605F7F4FA5
:101600000E94F4048A899B8963960FB6F894DEBF22
:101610000FBECDBFDF91CF9108959F92AF92BF9241
:10162000CF92DF92EF92FF920F931F93CF93DF93AE
:1016300000D000D000D0CDB7DEB7FC019681992351
:1016400009F4E2C06B017F01915096835F0182E053
:10165000A80EB11CC5010E94AD13D7011296ED91E1
:10166000FC91139780818B3521F08B3709F499C059
:10167000A3C0F70100811181B80184E090E00E94CD
:101680005903009751F0DC0111961C930E931396A9
:101690001C921E9212978C0111C08091F803811147
:1016A0000BC01092F5031092F4031092F7031092FE
:1016B000F60381E08093F80304EF13E06BE5C501C6
:1016C0000E94EF13882309F44CC06DE5C5010E9408
:1016D000EF13811157C086E0982E1A821982BE013D
:1016E0006F5F7F4FC7010E940D0B8823D1F1F80176
:1016F0006081718188E090E00E945903DC01892BB0
:1017000039F011961C921E9213961C921E921297FB
:10171000F801228133812115310551F0F9018081D1
:101720009181009711F09C01F9CFB183A08303C090
:10173000F801B383A2831097A1F0FE0131961296AF
:10174000892D01900D928A95E1F76DE5C5010E9402
:10175000EF13811117C06CE2C5010E94EF138111D4
:10176000BCCF8091F80381110BC01092F503109249
:10177000F4031092F7031092F60381E08093F803CC
:1017800004EF13E0D8018D919C91892B11F410E0A6
:1017900033C086E090E0F601918380831383028357
:1017A0002AC0C7010E941817DC012D913C91232B00
:1017B00071F327E030E01AC011E0873219F082326D
:1017C00009F010E0C7010E946914009701F311238A
:1017D00059F022E030E0D60111963C932E931396F7
:1017E0009C938E93129708C021E030E0F60131837C
:1017F00020839383828311E0D70116968C911697EC
:101800008F5F16968C9301C010E0812F26960FB63D
:10181000F894DEBF0FBECDBFDF91CF911F910F9126
:10182000FF90EF90DF90CF90BF90AF909F90089582
:10183000CF93DF93FC01448155816081718183EFF7
:1018400092E00E94130EEC0162EC71E083EF92E0F3
:101850000E947E038C0F9D1FDF91CF9108951F92F0
:101860000F920FB60F9211242F933F934F935F93D4
:101870006F937F938F939F93AF93BF93EF93FF9358
:101880008091B900887F803609F49CC068F5883261
:1018900009F45BC090F4803109F454C038F4882313
:1018A00009F4F6C0883009F44DC0F6C0883109F457
:1018B0004CC0803209F45DC0EFC0803409F468C0C8
:1018C00048F4803309F455C0883309F0E5C08093AB
:1018D0004304D8C0803509F44FC0883509F45DC091
:1018E000883409F0D9C0D6C0883909F4C7C0A8F433
:1018F000883709F467C038F4883609F463C0803744
:1019000009F460C0C9C0883809F4B8C0803909F446
:101910005FC0803809F0C0C05BC0803B09F486C05E
:1019200038F4803A09F466C0883A09F47FC0B4C03C
:10193000803C09F4A7C0883C09F4A4C0883B09F4A2
:101940008AC0AAC08091200410C090914204809166
:101950004104981770F5E091420481E08E0F809366
:101960004204F0E0EF5DFB4F80818093BB0085EC8B
:1019700086C0809343048EC0E091420481E08E0FC4
:10198000809342048091BB00F0E0EF5DFB4F8083C9
:1019900090914204809141046EC0E091420481E044
:1019A0008E0F809342048091BB00F0E0EF5DFB4F0F
:1019B00080838091E10281116DC081E08093E0021B
:1019C00084EA61C083E08093E2021092F303CFCFF8
:1019D0008091F303803208F051C0E091F30381E07D
:1019E0008E0F8093F3038091BB00F0E0ED52FC4F2B
:1019F0008083BDCF85EC8093BC001092E202809181
:101A0000F303803230F4E091F303F0E0ED52FC4F49
:101A100010826091F30370E0E091D103F091D20362
:101A200083ED93E009951092F30336C084E0809330
:101A3000E2021092D0031092CF03E091CD03F09117
:101A4000CE0309958091CF03811105C081E0809379
:101A5000CF031092AD03E091D00381E08E0F80930D
:101A6000D003F0E0E355FC4F80818093BB00909160
:101A7000D0038091CF03981708F479CF85E880933D
:101A8000BC000AC085EC8093BC001092E20204C046
:101A9000109243040E942A09FF91EF91BF91AF91E8
:101AA0009F918F917F916F915F914F913F912F9176
:101AB0000F900FBE0F901F9018953FB7F89480912C
:101AC000A9039091AA03A091AB03B091AC0326B5F2
:101AD000A89B05C02F3F19F00196A11DB11D3FBF66
:101AE000BA2FA92F982F8827820F911DA11DB11DF4
:101AF000BC01CD0142E0660F771F881F991F4A95F0
:101B0000D1F708952FB7F8946091A5037091A603BB
:101B10008091A7039091A8032FBF08950F931F935F
:101B20000E94820D6093FB027093FC028093FD0281
:101B30009093FE02E091F302F091F4020680F781A7
:101B4000E02D83EF92E0099597FF1FC00E94820D60
:101B50000091FB021091FC022091FD023091FE02E7
:101B6000DC01CB01801B910BA20BB30B0091F702A0
:101B70001091F8022091F9023091FA028017910732
:101B8000A207B307B8F28FEF9FEF1F910F9108954F
:101B90001F920F920FB60F9211242F933F938F93A2
:101BA0009F93AF93BF938091A5039091A603A091BB
:101BB000A703B091A8033091A40323E0230F2D378E
:101BC00020F40196A11DB11D05C026E8230F029641
:101BD000A11DB11D2093A4038093A5039093A60398
:101BE000A093A703B093A8038091A9039091AA039F
:101BF000A091AB03B091AC030196A11DB11D8093E0
:101C0000A9039093AA03A093AB03B093AC03BF9135
:101C1000AF919F918F913F912F910F900FBE0F9099
:101C20001F9018950895CF92DF92EF92FF920F9335
:101C30001F93CF93DF936C017A018B01C0E0D0E05A
:101C4000CE15DF0589F0D8016D918D01D601ED919A
:101C5000FC910190F081E02DC6010995892B11F4CA
:101C60007E0102C02196ECCFC701DF91CF911F9179
:101C70000F91FF90EF90DF90CF900895FC01918D30
:101C8000828D981761F0828DDF01A80FB11D5D96DE
:101C90008C91928D9F5F9F73928F90E008958FEF4C
:101CA0009FEF0895FC01918D828D981731F0828D00
:101CB000E80FF11D858D90E008958FEF9FEF089557
:101CC000FC01918D228D892F90E0805C9F4F821BBB
:101CD00091098F739927089583EF92E00E94600E17
:101CE00021E0892B09F420E0822F0895FC01848DE6
:101CF000DF01A80FB11DA35ABF4F2C91848D90E036
:101D000001968F739927848FA689B7892C93A08910
:101D1000B1898C9180648C93938D848D981306C0C7
:101D20000288F389E02D80818F7D80830895EF9272
:101D3000FF920F931F93CF93DF93EC0181E0888F85
:101D40009B8D8C8D981305C0E889F989808185FD6C
:101D500024C0F62E0B8D10E00F5F1F4F0F7311275D
:101D6000E02E8C8DE8120CC00FB607FCFACFE88984
:101D7000F989808185FFF5CFCE010E94760EF1CFE3
:101D80008B8DFE01E80FF11DE35AFF4FF0820B8FA0
:101D9000EA89FB898081806207C0EE89FF896083C0
:101DA000E889F98980818064808381E090E0DF9117
:101DB000CF911F910F91FF90EF900895CF93DF93F4
:101DC000EC01888D8823C9F0EA89FB89808185FD33
:101DD00005C0A889B9898C9186FD0FC00FB607FC94
:101DE000F5CF808185FFF2CFA889B9898C9185FFD5
:101DF000EDCFCE010E94760EE7CFDF91CF9108950F
:101E000080E090E0892B29F00E946C0E81110C94E7
:101E1000000008950E948C1D0F931F93CF93DF93B2
:101E2000EC0188819981009729F02A813B8126174E
:101E3000370788F48B016F5F7F4F0E94C21C0097A9
:101E400061F0998388831B830A832C813D81232B36
:101E500011F4FC01108281E001C080E0DF91CF919C
:101E60001F910F910895EF92FF920F931F93CF93BD
:101E7000DF93EC017B018A01BA010E940C0F2881DB
:101E8000398181110DC02115310519F0C9010E9458
:101E90002A1C198218821D821C821B821A8206C08B
:101EA0001D830C83B701C9010E94A31DCE01DF91E0
:101EB000CF911F910F91FF90EF900895CF93DF93F3
:101EC000EC0108969B838A838CE291E09D838C834E
:101ED0001F821E828AE891E099838883CE010E9446
:101EE0006803CC5CDE4F99838883DF91CF9108959E
:101EF000CF93DF93DC01ED91FC91EB01A881B981D7
:101F0000309711F01097C9F4109759F0EB012C811C
:101F10003D81232B31F08C9190E091958195910931
:101F200014C0309781F0DC0114968D919C91159727
:101F3000892B49F0808190E008C0BD01CF01DF917D
:101F4000CF910C949A1D80E090E0DF91CF9108959D
:101F5000EF92FF920F931F93CF93DF9300D0CDB7F3
:101F6000DEB78C0169831A82FC01E480F580FFEF03
:101F7000EF1AFF0AB7010E940C0F882381F0F801C5
:101F80002081318184819581BE016F5F7F4F820FF7
:101F9000931F0E94A31DF801F582E48281E00F9057
:101FA0000F90DF91CF911F910F91FF90EF900895C7
:101FB000FC01848195810E94A80F81E090E0089542
:101FC0000F931F93CF93DF938C01EB01FC01808172
:101FD00091810097B1F0688179816115710579F07F
:101FE000428153812C813D814217530740F00E946A
:101FF000A31D8C819D81F8019583848313C00E9469
:102000002A1C88819981F801918380838A819B8130
:10201000938382838C819D81958384831982188226
:102020001B821A821D821C82DF91CF911F910F911A
:102030000895FC01808191810C942A1CFC0111827D
:10204000108213821282158214826115710551F07B
:10205000FB0101900020E9F73197AF01461B570BB8
:102060000C94330F0895EF92FF920F931F93CF9329
:10207000DF9300D000D000D0CDB7DEB78C017B015C
:1020800063ED71E00E941E10F701808191811C8236
:102090001B822EE231E03A8329831E830D83BE0129
:1020A0006F5F7F4F0E94D30AC80126960FB6F8943F
:1020B000DEBF0FBECDBFDF91CF911F910F91FF907B
:1020C000EF900895CF93DF93CDB7DEB7CC53D140D7
:1020D0000FB6F894DEBF0FBECDBFCE0101960E94B1
:1020E0005E0F4EE953E065E272E0CB5CDE4F888123
:1020F0009981C553D1400E94161548E252E060E331
:1021000072E0CB5CDE4F88819981C553D1400E943B
:102110006515BE016B5C7E4FCE01895C9E4F0E94AF
:102120003310CE01895C9E4F0E94180CCE01895C51
:102130009E4F0E941910C45CDE4F0FB6F894DEBFAC
:102140000FBECDBFDF91CF9108951F920F920FB6B2
:102150000F9211242F933F934F935F936F937F932D
:102160008F939F93AF93BF93EF93FF9383EF92E08F
:102170000E94760EFF91EF91BF91AF919F918F9149
:102180007F916F915F914F913F912F910F900FBE73
:102190000F901F9018951F920F920FB60F92112457
:1021A0002F938F939F93EF93FF93E0910303F0910D
:1021B00004038081E0910903F0910A0382FD12C0BB
:1021C000908180910C038F5F8F7320910D03821794
:1021D00051F0E0910C03F0E0ED50FD4F958F8093AE
:1021E0000C0301C08081FF91EF919F918F912F91FE
:1021F0000F900FBE0F901F901895CF93DF93CDB720
:10220000DEB7CC53D1400FB6F894DEBF0FBECDBFC2
:10221000CE0101960E945E0F4EE953E065E272E046
:10222000CB5CDE4F88819981C553D1400E94161541
:10223000BE016B5C7E4FCE01895C9E4F0E943310C5
:10224000BE01695C7E4F88E993E00E94E00FCE01F9
:10225000895C9E4F0E941910CE0101960E945E0F6C
:102260004EE953E065E272E0CB5CDE4F88819981F4
:10227000C553D1400E941615BE016B5C7E4FCE0146
:10228000895C9E4F0E943310BE01695C7E4F82E9DB
:1022900093E00E94E00FCE01895C9E4F0E941910CE
:1022A000E3EFF2E084E690E0A0E0B0E08483958381
:1022B000A683B783A089B18982E08C93A089B18974
:1022C0001C92A485B5851C92A685B78580E18C9368
:1022D000108EA489B58986E08C93A289B3898C91EC
:1022E00080618C93A289B3898C9188608C93A28938
:1022F000B3898C9180688C930288F389E02D80816A
:102300008F7D80838091900390919103DC01ED910A
:10231000FC910190F081E02D0995809190039091BE
:102320009103DC01ED91FC910280F381E02D099590
:10233000C45CDE4F0FB6F894DEBF0FBECDBFDF9199
:10234000CF910895EF92FF920F931F93CF93DF9356
:10235000CDB7DEB7CE54D1400FB6F894DEBF0FBE76
:10236000CDBF7C0163ED71E0CE018D5B9E4F0E947D
:102370001E1063ED71E0CE01835C9E4F0E941E1023
:10238000B701CE0101960E947502CB5CDE4F088139
:102390001981C553D140D8018D919C91892B09F4A5
:1023A0000EC167E372E0C8010E949517882391F07F
:1023B00067E372E0C8010E943E14BC01CE01895C53
:1023C0009E4F0E941E10BE01695C7E4FCE018D5B48
:1023D0009E4F18C065E272E0C8010E9495178823DD
:1023E000C1F065E272E0C8010E943E14BC01CE015A
:1023F000895C9E4F0E941E10BE01695C7E4FCE011B
:10240000835C9E4F0E94E00FCE01895C9E4F0E942C
:1024100019106BE372E0CE0101960E941E10BE01FE
:102420006F5F7F4FCE018D5B9E4F0E94780F8C01B6
:10243000CE0101960E941910012BE9F460919003DE
:1024400070919103DB01ED91FC910084F185E02D09
:1024500048E953E0CE0101960995BE016F5F7F4FB9
:1024600088E993E00E94E00FCE0101960E941910C6
:1024700088E993E017C060E472E0CE0101960E9403
:102480001E10BE016F5F7F4FCE018D5B9E4F0E947D
:10249000780F8C01CE0101960E941910012B29F4AE
:1024A00082E993E00E94180C8AC0CF5BDE4F48811E
:1024B0005981C154D1404115510579F4809190035F
:1024C00090919103DC01ED91FC910284F385E02D64
:1024D000B7010995811171C08AC0C35CDE4F688164
:1024E0007981CD53D1406115710529F08EE993E0D2
:1024F0000E94330F14C080919E0390919F03009718
:1025000011F00E942A1C10929F0310929E031092B9
:10251000A3031092A2031092A1031092A00368E9F2
:1025200073E0CE0101960E947502AE01435C5E4FDE
:1025300065E272E0CB5CDE4F88819981C553D14062
:102540000E941615BE016B5C7E4FCE01895C9E4FCA
:102550000E943310BE01695C7E4F88E993E00E94BF
:10256000E00FCE01895C9E4F0E94191062E973E072
:10257000CE0101960E947502AE01435C5E4F65E29A
:1025800072E0CB5CDE4F88819981C553D1400E94B7
:102590001615BE016B5C7E4FCE01895C9E4F0E947A
:1025A0003310BE01695C7E4F82E993E00E94E00F28
:1025B000CE01895C9E4F0E9419100E946210CE01CC
:1025C000835C9E4F0E941910CE018D5B9E4F0E942E
:1025D0001910C25BDE4F0FB6F894DEBF0FBECDBF41
:1025E000DF91CF911F910F91FF90EF90089565E4D7
:1025F00072E0CE01875B9E4F0E941E10CE010196B5
:102600000E945E0F4EE953E065E272E0CB5CDE4F64
:1026100088819981C553D1400E94161546E552E044
:1026200060E372E0CB5CDE4F88819981C553D14075
:102630000E946515AE01475B5E4F6EE572E0CB5CB4
:10264000DE4F88819981C553D1400E941615BE0185
:102650006B5C7E4FCE01895C9E4F0E943310CE0191
:10266000895C9E4F0E94180CCE01895C9E4F0E948F
:102670001910CE01875B9E4F0E941910A0CFEF92D8
:10268000FF920F931F93CF93DF9300D000D000D021
:10269000CDB7DEB78C017B0163ED71E00E941E10A7
:1026A000F701808191811C821B822EE231E03A8306
:1026B00029831E830D83BE016F5F7F4F0E94D30A63
:1026C000C80126960FB6F894DEBF0FBECDBFDF91CE
:1026D000CF911F910F91FF90EF9008950F931F934B
:1026E000CF93DF93EC018B01209759F06A817B81B6
:1026F000C8010E949A1D892B39F00990D881C02DFC
:10270000F3CF80E090E001C0CE01DF91CF911F9127
:102710000F910895CF93DF93EC01688179818AE06E
:1027200090E00E945903009729F0FC011182108269
:1027300015821482EA81FB81309751F0208131812A
:102740002115310511F0F901F9CF9183808302C081
:102750009B838A83DF91CF910895FC01A081B18191
:102760008C918D3051F024F489508230B8F505C039
:10277000803219F08F3219F0089511962CC01196FD
:102780008C9111978A3219F08F32D1F008951196F9
:10279000B183A083A081B181CD0101969183808313
:1027A00011968C9111978823C9F08A3299F7129665
:1027B0008C9112978F3271F713960DC08A3071F297
:1027C000A081B181CD0101969183808311968C9176
:1027D0008111F4CF03C0B183A083C0CF08950F93BC
:1027E0001F93CF93DF931F92CDB7DEB78C01698320
:1027F0000E94AD13D801ED91FC9111978081698100
:10280000861305C03196ED93FC9381E001C080E012
:102810000F90DF91CF911F910F910895EF92FF924A
:102820000F931F93CF93DF938C01EB017A01FC018F
:10283000828193810E946E13FC01892B41F4C801AF
:102840000E948A13FC01892B89F0D383C283E7019C
:1028500088819981AA81BB812AE030E03583248375
:1028600086839783A087B18781E001C080E0DF91F4
:10287000CF911F910F91FF90EF9008950F931F93A9
:10288000CF93DF93FC01828193810E946E13EC0150
:10289000892BC1F00C811D810130110559F46E8125
:1028A0007F816115710531F084ED91E00E949A1DE0
:1028B000892B41F0015011090230110518F48E8165
:1028C0009F8102C080E090E0DF91CF911F910F9136
:1028D0000895EF92FF920F931F93CF93DF938C0194
:1028E000DC011496CD91DC911597EA80FB808E81F6
:1028F0009F81E80EF91EC80102960E94AD13D8010F
:102900001296ED91FC9113979081973291F192324A
:1029100081F180ED890F8A3060F0892F8F7D81549D
:102920008A3138F09B3229F083ED890F823008F02C
:1029300060C0F801228133812F5F3F4F33832283B0
:102940002E813F81A9014F5F5F4F6C817D816417AC
:10295000750740F06A817B81FB01E20FF31F5F8303
:102960004E839083D8011296ED91FC91139790813C
:10297000D0CF3196D8011396FC93EE931297D801DD
:102980001296ED91FC9113972081222391F1AF01D2
:102990004F5F5F4F13965C934E931297291749F13F
:1029A0002C35A9F42181A9ECB1E08C91882339F070
:1029B000821303C011962C9102C01296F6CF2223E7
:1029C000C1F03296D8011396FC93EE9312974E8184
:1029D0005F81BA016F5F7F4FEC81FD81E617F707DA
:1029E00070F2EA81FB81E40FF51F7F836E83208301
:1029F000C6CF8E819F819C012F5F3F4F4C815D81AF
:102A00004217530748F04A815B81FA01E80FF91F2A
:102A10003F832E83108202C0E12CF12CC701DF918D
:102A2000CF911F910F91FF90EF900895CF92DF9279
:102A3000EF92FF920F931F93CF93DF938C017B0153
:102A40006A01DC0112968D919C9113970E946E137E
:102A5000EC01892B41F4C8010E948A13EC01892BF7
:102A600051F1FB82EA82F80180819181D6012D919A
:102A70003C911197232BF9F014960D911C91159709
:102A80000F5F1F4FDC01ED91FC910190F081E02D73
:102A9000B80109957C01009771F0F60160817181A0
:102AA000A8010E94911D82E090E09D838C83FF82AB
:102AB000EE8281E001C080E0DF91CF911F910F9104
:102AC000FF90EF90DF90CF900895EF92FF920F93D9
:102AD0001F93CF93DF938C01EB017A01FC0182817C
:102AE00093810E946E13FC01892B41F4C8010E945E
:102AF0008A13FC01892B51F0D383C28382E090E0DA
:102B000095838483F782E68281E001C080E0DF91D3
:102B1000CF911F910F91FF90EF900895EF92FF9248
:102B20000F931F93CF93DF938C01EB017A01DC01AC
:102B300012968D919C9113970E946E13FC01892B24
:102B400041F4C8010E948A13FC01892B89F0D383C8
:102B5000C283D7018D919C91A0E0B0E024E030E0E9
:102B60003583248386839783A087B18781E001C062
:102B700080E0DF91CF911F910F91FF90EF9008952A
:102B8000CF92DF92EF92FF920F931F93CF93DF9339
:102B9000DC012D913C912115310551F4DF91CF914C
:102BA0001F910F91FF90EF90DF90CF900C9447030F
:102BB0007B01EC01C9010E9468038C01B7018A8185
:102BC0009B810E946E13FC01892B41F4CE010E946F
:102BD0008A13FC01892B89F0F382E282D8018D915E
:102BE0009C91892B19F480E090E003C0680187E094
:102BF00090E095838483C682D782C801DF91CF910C
:102C00001F910F91FF90EF90DF90CF900895AF92BA
:102C1000BF92CF92DF92EF92FF920F931F93CF93C9
:102C2000DF93CDB7DEB7C456D1400FB6F894DEBF00
:102C30000FBECDBF7C016B015A018B010E5F1F4F90
:102C4000C8010E9479078823D9F3BE01695C7E4FD1
:102C5000C8010E94E301B501CE0101960E947502F0
:102C600066EA71E0CB5CDE4F88819981C553D14023
:102C70000E94C0156EEA71E00E94C0158C01AE0181
:102C8000495C5E4F6CE672E00E94651563E772E096
:102C9000F801828193810E946E13FC01892B51F40B
:102CA000C8010E948A13FC01892B01F183E792E09D
:102CB00093838283CD5BDE4F88819981AA81BB811A
:102CC000C354D140B7FD03C024E030E009C0B09543
:102CD000A095909581959F4FAF4FBF4F25E030E075
:102CE0003583248386839783A087B18747E351E0A8
:102CF0004C0F5D1F445E5F4F62E872E0C8010E94A6
:102D00000E1447E351E04C0F5D1F485E5F4F6CE8C7
:102D100072E0C8010E940E1447E351E04C0F5D1FA2
:102D2000405E5F4F66E972E0C8010E940E14F60132
:102D3000878190858031910571F02CF4892B89F47D
:102D400064EA71E010C08032910541F0C09749F407
:102D500068EA72E008C061EA72E005C064EA72E005
:102D600002C063ED71E0CE01815A9E4F0E941E1099
:102D7000AE01415A5E4F6DEA72E0C8010E9416151D
:102D8000CE01815A9E4F0E941910F601258136818D
:102D900022303105B9F04CF42115310581F0213094
:102DA0003105C9F466EB72E018C02430310581F0BA
:102DB00064F02530310579F466EC72E00EC062EB08
:102DC00072E00BC06AEB72E008C06EEB72E005C007
:102DD00062EC72E002C063ED71E0CE01815A9E4F59
:102DE0000E941E10AE01415A5E4F6AEC72E0C801AB
:102DF0000E941615CE01815A9E4F0E941910BE01E5
:102E00006B5C7E4FC7010E943F13C701CC59DE4F58
:102E10000FB6F894DEBF0FBECDBFDF91CF911F91EB
:102E20000F91FF90EF90DF90CF90BF90AF900895FB
:102E30009F92AF92BF92CF92DF92EF92FF920F9349
:102E40001F93CF93DF9300D000D000D0CDB7DEB773
:102E5000D82EC92E082F192FF801819191918F0139
:102E60000E9468037C016BE7C8010E94EF1388236E
:102E700009F445C06DE7C8010E94EF13811142C0FB
:102E800086E0982E8D2D9C2D0E9469145C01892B63
:102E9000B1F16AE3C8010E94EF13882381F11A821D
:102EA0001982BE016F5F7F4F8D2D9C2D0E940D0BEF
:102EB000882329F1B501F701828193810E946E1365
:102EC000009741F4C7010E948A130097C1F0FC01EA
:102ED000B382A282FE013196DC011496892D019005
:102EE0000D928A95E1F76DE7C8010E94EF138111F9
:102EF00009C06CE2C8010E94EF138111C3CF0E9488
:102F0000470301C0C70126960FB6F894DEBF0FBE77
:102F1000CDBFDF91CF911F910F91FF90EF90DF9088
:102F2000CF90BF90AF909F900895FC0182819381D4
:102F30000E946E1321E0892B09F420E0822F08956E
:102F4000AF92BF92CF92DF92EF92FF920F931F93B7
:102F5000CF93DF93CDB7DEB7C254D1400FB6F8940C
:102F6000DEBF0FBECDBF5C01CE0101960E9475028F
:102F7000CB5CDE4F08811981C553D1406EEA71E008
:102F8000C8010E949517882309F460C16EEA71E0B8
:102F9000F801828193810E946E13FC01892B09F450
:102FA00055C184819581079709F050C1C680D780AB
:102FB0006DEA72E0C6010E949517882309F485C066
:102FC0006DEA72E0C6010E943E14BC01CE01835C32
:102FD0009E4F0E941E107501F2E0EF0EF11CC7011A
:102FE0000E9479078823D9F364EA71E0CE01895CF5
:102FF0009E4F0E941E10BE01695C7E4FCE01835C15
:103000009E4F0E94780F8C01CE01895C9E4F0E94DA
:103010001910012B19F460E070E04DC061EA72E014
:10302000CE01895C9E4F0E941E10BE01695C7E4FDE
:10303000CE01835C9E4F0E94780F8C01CE01895C8B
:103040009E4F0E941910012B19F460E170E033C00B
:1030500064EA72E0CE01895C9E4F0E941E10BE01A0
:10306000695C7E4FCE01835C9E4F0E94780F8C017D
:10307000CE01895C9E4F0E941910012B19F460E269
:1030800070E019C068EA72E0CE01895C9E4F0E9430
:103090001E10BE01695C7E4FCE01835C9E4F0E9474
:1030A000780F8C01CE01895C9E4F0E941910012B74
:1030B00029F460E370E0C7010E94E506CE01835C5D
:1030C0009E4F0E94191011E001C010E06AEC72E0FE
:1030D000C6010E949517882309F4B9C06AEC72E012
:1030E000C6010E943E14BC01CE01835C9E4F0E942B
:1030F0001E1085010E5F1F4FC8010E9479078823AB
:10310000D9F362EB72E0CE01895C9E4F0E941E10E3
:10311000BE01695C7E4FCE01835C9E4F0E94780F9A
:103120007C01CE01895C9E4F0E941910EF2819F492
:1031300060E070E081C066EB72E0CE01895C9E4F7A
:103140000E941E10BE01695C7E4FCE01835C9E4FC3
:103150000E94780F7C01CE01895C9E4F0E9419105D
:10316000EF2819F461E070E067C06AEB72E0CE010D
:10317000895C9E4F0E941E10BE01695C7E4FCE018D
:10318000835C9E4F0E94780F7C01CE01895C9E4F2C
:103190000E941910EF2819F462E070E04DC06EEB48
:1031A00072E0CE01895C9E4F0E941E10BE01695CD8
:1031B0007E4FCE01835C9E4F0E94780F7C01CE0132
:1031C000895C9E4F0E941910EF2819F463E070E0AB
:1031D00033C062EC72E0CE01895C9E4F0E941E10EB
:1031E000BE01695C7E4FCE01835C9E4F0E94780FCA
:1031F0007C01CE01895C9E4F0E941910EF2819F4C2
:1032000064E070E019C066EC72E0CE01895C9E4F0C
:103210000E941E10BE01695C7E4FCE01835C9E4FF2
:103220000E94780F7C01CE01895C9E4F0E9419108C
:10323000EF2829F465E070E0C8010E94E808CE019B
:10324000835C9E4F0E94191011E001C010E0812F95
:10325000CE5BDE4F0FB6F894DEBF0FBECDBFDF9161
:10326000CF911F910F91FF90EF90DF90CF90BF9083
:10327000AF900895E7EEF2E01382128288EE93E0B9
:10328000A0E0B0E084839583A683B78326E331E092
:1032900031832083E3EFF2E01382128284839583EB
:1032A000A683B78386E491E09183808385EC90E0E8
:1032B0009587848784EC90E09787868780EC90E000
:1032C000918B808B81EC90E0938B828B82EC90E0F1
:1032D000958B848B86EC90E0978B868B118E128E6B
:1032E000138E148E6BE172E08EE993E00E941E1043
:1032F00063ED71E088E993E00E941E1063ED71E0D8
:1033000082E993E00E941E1086E190E00E94951BE6
:10331000FC018AE791E0918380838EE591E09383BD
:10332000828315861682158280E190E090878783DC
:103330001186128613861486F0939103E09390030E
:103340000895CF93DF9300D000D000D0CDB7DEB783
:10335000789484B5826084BD84B5816084BD85B570
:10336000826085BD85B5816085BD80916E0081607C
:1033700080936E0010928100809181008260809322
:103380008100809181008160809381008091800024
:103390008160809380008091B10084608093B1004F
:1033A0008091B00081608093B00080917A00846049
:1033B00080937A0080917A00826080937A00809175
:1033C0007A00816080937A0080917A00806880938F
:1033D0007A001092C1000E94FD108091900390919C
:1033E0009103DC01ED91FC910480F581E02D0995BC
:1033F000882371F16091900370919103DB01ED914D
:10340000FC910680F781E02D42E953E0CE01019660
:103410000995BE016F5F7F4F82E993E00E94E00F44
:10342000CE0101960E941910809190039091910312
:10343000DC01ED91FC910280F381E02D099508C03B
:10344000CE0101960E94A211CE0101960E94191090
:1034500083EF92E00E94600E1816190684F463ED63
:1034600071E0CE0101960E941E100E948E0D97FD04
:10347000E7CF682FCE0101960E94A80FF6CF0E94D9
:10348000000FABCF82E993E00E94191088E993E026
:103490000E9419108EE993E00C941910A1E21A2EE3
:1034A000AA1BBB1BFD010DC0AA1FBB1FEE1FFF1FE8
:1034B000A217B307E407F50720F0A21BB30BE40B38
:1034C000F50B661F771F881F991F1A9469F760957F
:1034D0007095809590959B01AC01BD01CF01089539
:1034E000EE0FFF1F0590F491E02D09945058BB2773
:1034F000AA270E948E1A0C94A31E0E94951E38F0D3
:103500000E949C1E20F039F49F3F19F426F40C947D
:10351000921E0EF4E095E7FB0C948C1EE92F0E949E
:10352000B41E58F3BA17620773078407950720F093
:1035300079F4A6F50C94D61E0EF4E0950B2EBA2F56
:10354000A02D0B01B90190010C01CA01A0011124A9
:10355000FF27591B99F0593F50F4503E68F11A1655
:10356000F040A22F232F342F4427585FF3CF4695E6
:1035700037952795A795F0405395C9F77EF41F1608
:10358000BA0B620B730B840BBAF09150A1F0FF0FD2
:10359000BB1F661F771F881FC2F70EC0BA0F621FBE
:1035A000731F841F48F4879577956795B795F795AE
:1035B0009E3F08F0B0CF9395880F08F09927EE0F43
:1035C0009795879508950E94F71A0C94A31E0E9460
:1035D0009C1E58F00E94951E40F029F45F3F29F090
:1035E0000C948C1E51110C94D71E0C94921E0E94A8
:1035F000B41E68F39923B1F3552391F3951B550B32
:10360000BB27AA2762177307840738F09F5F5F4FB5
:10361000220F331F441FAA1FA9F335D00E2E3AF0F4
:10362000E0E832D091505040E695001CCAF72BD00C
:10363000FE2F29D0660F771F881FBB1F261737075D
:103640004807AB07B0E809F0BB0B802DBF01FF278F
:1036500093585F4F3AF09E3F510578F00C948C1EC2
:103660000C94D71E5F3FE4F3983ED4F3869577958C
:103670006795B795F7959F5FC9F7880F911D969548
:10368000879597F90895E1E0660F771F881FBB1FA4
:10369000621773078407BA0720F0621B730B840B51
:1036A000BA0BEE1F88F7E09508950E945C1B6894A2
:1036B000B1110C94D71E08950E94BC1E88F09F572C
:1036C00098F0B92F9927B751B0F0E1F0660F771F46
:1036D000881F991F1AF0BA95C9F714C0B13091F03C
:1036E0000E94D61EB1E008950C94D61E672F782F45
:1036F0008827B85F39F0B93FCCF386957795679501
:10370000B395D9F73EF490958095709561957F4F6C
:103710008F4F9F4F08950E94FB1D08F48FEF08956F
:103720000E94FB1D880B990B0895CF93DF93823085
:10373000910510F482E090E0E0916604F091670456
:1037400020E030E0C0E0D0E0309711F140815181BD
:1037500048175907C0F04817590761F482819381CF
:10376000209719F09B838A832BC0909367048093E2
:10377000660426C02115310519F04217530718F4C5
:103780009A01BE01DF01EF010280F381E02DDCCF61
:103790002115310509F1281B390B2430310590F42E
:1037A00012968D919C9113976115710521F0FB0183
:1037B0009383828304C09093670480936604FD0121
:1037C000329644C0FD01E20FF31F81939193225082
:1037D00031092D933C933AC02091640430916504E3
:1037E000232B41F4209102013091030130936504B1
:1037F00020936404209100013091010121153105CD
:1038000041F42DB73EB74091040150910501241BAE
:10381000350BE0916404F0916504E217F307A0F41E
:103820002E1B3F0B2817390778F0AC014E5F5F4F16
:103830002417350748F04E0F5F1F509365044093DF
:1038400064048193919302C0E0E0F0E0CF01DF9146
:10385000CF9108950F931F93CF93DF93009709F4AF
:103860008CC0FC0132971382128200916604109181
:1038700067040115110581F420813181820F931FA6
:1038800020916404309165042817390779F5F09385
:103890006504E093640471C0D80140E050E0AE17C5
:1038A000BF0750F412962D913C911397AD0121154D
:1038B000310509F1D901F3CF9D01DA013383228368
:1038C00060817181860F971F8217930769F4EC015D
:1038D00028813981260F371F2E5F3F4F3183208388
:1038E0008A819B8193838283452B29F4F09367041B
:1038F000E093660442C01396FC93EE931297ED0199
:10390000499159919E01240F351FE217F30771F475
:1039100080819181840F951F029611969C938E93BE
:103920008281938113969C938E931297E0E0F0E04E
:10393000D80112968D919C911397009719F0F80178
:103940008C01F6CF8D919C9198012E5F3F4F820F95
:10395000931F20916404309165042817390769F496
:10396000309729F4109267041092660402C0138203
:1039700012821093650400936404DF91CF911F912C
:103980000F910895A0E0B0E0E8ECFCE10C94E11E9A
:10399000EC01009721F4CB010E94951BB8C0FC01FB
:1039A000E60FF71F9C0122503109E217F30708F4D4
:1039B000ACC0D9010D911C91119706171707B0F0F3
:1039C0000530110508F49FC0C801049786179707B2
:1039D00008F499C002501109061B170B01931193AB
:1039E0006D937C93CF010E942A1C8DC05B01A01AAD
:1039F000B10A4C01800E911EA0916604B09167043B
:103A000040E050E0E12CF12C109709F44AC0A815D1
:103A1000B905D1F56D907C901197630182E0C80ED5
:103A2000D11CCA14DB0480F1A3014A195B096A01A5
:103A300082E0C80ED11C1296BC9012971396AC91DE
:103A4000B5E0CB16D10440F0B282A383518340830A
:103A5000D9016D937C930AC00E5F1F4FC301800F85
:103A6000911FF90191838083EB2DFA2FE114F1046A
:103A700031F0D7011396FC93EE93129744C0F09364
:103A80006704E09366043FC08D919C91119748179D
:103A9000590708F4AC017D0112960D90BC91A02D40
:103AA000B3CF809164049091650488159905E1F481
:103AB00046175707C8F480910001909101010097C3
:103AC00041F48DB79EB74091040150910501841BCC
:103AD000950BE817F907C8F4F0936504E0936404C4
:103AE000F901718360830FC0CB010E94951B7C019B
:103AF000009759F0A801BE010E94911DCE010E94BD
:103B00002A1CC70104C0CE0102C080E090E0CDB7FE
:103B1000DEB7EEE00C94FD1E81E090E0F8940C948A
:103B2000231FFB01DC0102C001900D924150504067
:103B3000D8F70895FB01DC018D91019080190110E7
:103B4000D9F3990B0895FB01DC0101900D9200203F
:103B5000E1F70895FB01DC014150504048F001902D
:103B60000D920020C9F701C01D9241505040E0F76E
:103B700008950E94FB1D08F481E00895E89409C0AF
:103B800097FB3EF490958095709561957F4F8F4F90
:103B90009F4F9923A9F0F92F96E9BB279395F695A6
:103BA000879577956795B795F111F8CFFAF4BB0F24
:103BB00011F460FF1BC06F5F7F4F8F4F9F4F16C088
:103BC000882311F096E911C0772321F09EE8872F12
:103BD000762F05C0662371F096E8862F70E060E0CE
:103BE0002AF09A95660F771F881FDAF7880F969547
:103BF000879597F90895990F0008550FAA0BE0E8EB
:103C0000FEEF16161706E807F907C0F0121613069E
:103C1000E407F50798F0621B730B840B950B39F4DE
:103C20000A2661F0232B242B252B21F408950A2644
:103C300009F4A140A6958FEF811D811D08950E9472
:103C4000321E0C94A31E0E94951E38F00E949C1EEA
:103C500020F0952311F00C948C1E0C94921E1124CC
:103C60000C94D71E0E94B41E70F3959FC1F3950F5C
:103C700050E0551F629FF001729FBB27F00DB11DF0
:103C8000639FAA27F00DB11DAA1F649F6627B00D80
:103C9000A11D661F829F2227B00DA11D621F739F69
:103CA000B00DA11D621F839FA00D611D221F749F77
:103CB0003327A00D611D231F849F600D211D822FBE
:103CC000762F6A2F11249F5750409AF0F1F08823E5
:103CD0004AF0EE0FFF1FBB1F661F771F881F915012
:103CE0005040A9F79E3F510580F00C948C1E0C9417
:103CF000D71E5F3FE4F3983ED4F38695779567959A
:103D0000B795F795E7959F5FC1F7FE2B880F911D3B
:103D10009695879597F9089597F99F6780E870E0E1
:103D200060E008959FEF80EC089500240A94161631
:103D3000170618060906089500240A941216130699
:103D4000140605060895092E0394000C11F4882327
:103D500052F0BB0F40F4BF2B11F460FF04C06F5F43
:103D60007F4F8F4F9F4F089557FD9058440F551F19
:103D700059F05F3F71F04795880F97FB991F61F0ED
:103D80009F3F79F087950895121613061406551F64
:103D9000F2CF4695F1DF08C0161617061806991FD0
:103DA000F1CF86957105610508940895E894BB27C5
:103DB00066277727CB0197F908952F923F924F926C
:103DC0005F926F927F928F929F92AF92BF92CF92AB
:103DD000DF92EF92FF920F931F93CF93DF93CDB7B4
:103DE000DEB7CA1BDB0B0FB6F894DEBF0FBECDBF2C
:103DF00009942A88398848885F846E847D848C84FD
:103E00009B84AA84B984C884DF80EE80FD800C8105
:103E10001B81AA81B981CE0FD11D0FB6F894DEBFE8
:103E20000FBECDBFED010895A29FB001B39FC001A9
:103E3000A39F700D811D1124911DB29F700D811DD6
:103E40001124911D089510E0C0E6D0E004C0FE01E9
:103E50000E94701A2196C136D107C9F7F894FFCF96
:103E60000000680480000000484300009643000002
:103E7000C8430000FA430000164400000000AF03EE
:103E8000130E00000000D900130E00000000D80F30
:103E9000130E00000000B809880980096C095D094B
:103EA0005C0900000000970E130E600E3E0E520ECD
:103EB000DE0E000000000A0F130E00000000E406F2
:103EC000E101E0017F08E3010000000000000000C4
:103ED000E0010A0F0A0F000000000E09EE07D607E6
:103EE000B3020716A017000000008B0000000000BE
:103EF0008B00000000000A0F000000000A0F54535E
:103F00004C323539310073656E736F7273007473A0
:103F10006C323539310066756C6C006972006C75F5
:103F200078000D0A0022225C5C6208660C6E0A7240
:103F30000D7409006E756C6C0074727565006661B5
:103F40006C7365004E614E00496E66696E697479E6
:103F500000652D004E6F2054534C3235393120739B
:103F6000656E736F7220666F756E642E2043686590
:103F7000636B20776972696E672E003C756E6B6E9D
:103F80006F776E3E006964007375636365737300D9
:103F9000726573756C7400636D6400696E666F00A2
:103FA0006461746100556E6B6E6F776E20636F6D28
:103FB0006D616E642E006661696C75726500657274
:103FC000726F725F6D6573736167650073656E73A1
:103FD0006F72006472697665725F76657273696F7D
:103FE0006E006D696E5F76616C7565006D61785FFE
:103FF00076616C7565007265736F6C7574696F6E50
:10400000003235003432380039383736006761699C
:104010006E00313030003230300033303000343018
:104020003000353030003630300074696D696E67AD
:0240300000008E
:00000001FF
