:100000000C94CE000C94F6000C94F6000C94F600C0
:100010000C94F6000C94F6000C94F6000C94F60088
:100020000C94F6000C94F6000C94F6000C94F60078
:100030000C94F6000C94F6000C94F6000C94F60068
:100040000C94F0140C94F6000C94BF160C949916B2
:100050000C94F6000C94F6000C94F6000C94F60048
:100060000C9491130C94F600D3059C048704AA0405
:10007000A404A004430473044E6F2054534C32353F
:1000800039312073656E736F7220666F756E642EE2
:1000900020436865636B20776972696E672E007410
:1000A000736C323539310073656E736F727300741F
:1000B000696D696E670074696D696E670067616973
:1000C0006E006761696E0074736C3235393100748B
:1000D000736C323539310074736C323539310074D8
:1000E000696D696E67006761696E0073656E736F35
:1000F000720074736C323539310073656E736F72D0
:1001000073007375636365737300726573756C74E4
:10011000006964006572726F725F6D657373616709
:1001200065006661696C75726500696400556E6B87
:100130006E6F776E20636F6D6D616E642E003C751F
:100140006E6B6E6F776E206C6F636174696F6E3E5D
:100150000000000000250028002B00040404040413
:100160000404040202020202020303030303030164
:10017000020408102040800102040810200102043B
:10018000081020000000080002010000030407001E
:100190000000000000000000BC1AB41A11241FBEA9
:1001A000CFEFD8E0DEBFCDBF11E0A0E0B1E0EEE2DE
:1001B000F3E402C005900D92AC3FB107D9F723E0FC
:1001C000ACEFB1E001C01D92A73AB207E1F710E031
:1001D000CDECD0E004C02197FE010E94311BCC3C45
:1001E000D107C9F70E94201A0C948A210C940000B0
:1001F000FC0126813781620F731F848195818617E8
:10020000970738F08281938177836683820F931FEB
:10021000089580E090E008958091000281110BC064
:100220001092FD011092FC011092FF011092FE014C
:1002300081E0809300028CEF91E00895813051F0CD
:10024000E8F0823061F0833079F46FE672E183E8A0
:100250009AE308956DEC7CEC8CEC9DE308956AE0E4
:1002600077ED83E29CE3089584500E941E0127E10C
:1002700037EB41ED58E30E943320089560E070E0D1
:1002800080E89FE30895CF93DF93EC018881998103
:10029000DC01ED91FC910190F081E02D09952A811E
:1002A0003B81820F931F9B838A83DF91CF910895B7
:1002B000DF92EF92FF920F931F93CF93DF93EC01A6
:1002C000D62E8E8187FD03C000E010E01FC0E12C18
:1002D000F12C00E010E09E81892F8F70929597702D
:1002E000899FC0011124E816F90684F48C819D8150
:1002F000DC01ED91FC910190F081E02D60E2099527
:10030000080F191FBFEFEB1AFB0AE5CF8C819D8107
:10031000DC01ED91FC910190F081E02D6D2D0995AE
:10032000AC0121E0BAE0DB1220E09E8120FB97F9CE
:100330009E83CA01800F911FDF91CF911F910F9172
:10034000FF90EF90DF9008954F925F926F927F92AF
:100350008F929F92AF92BF92CF92DF92EF92FF92D5
:100360000F931F93CF93DF93DC018B01EA01139668
:100370002D913C911497215031092530310560F4BD
:10038000220F331F220F331FF901EA5FFE4F6081F6
:1003900071818281938104C060E070E088EC92E416
:1003A00015962D913C9116972032310559F0203346
:1003B000310569F02031310579F420E030E048EC76
:1003C00051E40EC020E030E046ED53E409C020E0E7
:1003D00030E54AE156E404C020E030E040E85FE365
:1003E0000E94332020E030E04CEC53E40E94B81B24
:1003F0006B017C01B80180E090E00E94D21F2B01CC
:100400003C01BE0180E090E00E94D21F4B015C01E4
:1004100025E83BEE41ED5FE30E9433209B01AC01F8
:10042000C301B2010E944B1BA70196010E94B81B99
:10043000162FD72FC82F092F2DE33AE047E15FE3AE
:10044000C301B2010E9433202B013C0126EF38E2A8
:100450004CE55FE3C501B4010E9433209B01AC0170
:10046000C301B2010E944B1BA70196010E94B81B59
:100470006B017C019B01AC01612F7D2F8C2F902F94
:100480000E94601C181624F01C2DDD2DCE2D0F2D82
:10049000612F7D2F8C2F902F0E94311CDF91CF91E7
:1004A0001F910F91FF90EF90DF90CF90BF90AF9092
:1004B0009F908F907F906F905F904F9008950895D8
:1004C000EF92FF920F931F93CF93DF938C01EB0179
:1004D0007A01DC0112968D919C9113970E94050D73
:1004E000FC01892B41F4C8010E94940DFC01892B69
:1004F00089F0D383C283D7018D919C91A0E0B0E0B5
:1005000024E030E03583248386839783A087B187F6
:1005100081E001C080E0DF91CF911F910F91FF90AA
:10052000EF900895FC0194819F7D9B35A1F4058097
:10053000F681E02D3681932F9F709F3039F09F5FB9
:10054000292F2F70932F907F922B96836EE971E065
:10055000CF010C94841680E090E00895FF920F93F1
:100560001F93CF93DF938C01F62EDC0117968C91AD
:100570008823B1F0B2E26B1305C0F80184818C3599
:1005800009F0A5C0D80115968D919C911697DC01B4
:10059000ED91FC910190F081E02D6F2D09958FC0B8
:1005A000BBE56B1751F1B617F0F0ECE26E1709F4EA
:1005B00061C0FAE36F1709F446C082E268136EC0A7
:1005C00081E0D80117968C93C8010E949202EC0139
:1005D000F80185819681DC01ED91FC910190F0811B
:1005E000E02D62E269C0ABE76A1739F0BDE76B172F
:1005F00041F0EDE56E1352C004C0C8010E949202A2
:100600001BC0F80184818F7D8B3519F4C0E0D0E0E8
:1006100014C00580F681E02D3681932F9F7039F04C
:10062000915F292F2F70932F907F922B96836EE9E5
:1006300071E0CF010E948416EC01D80115968D91CE
:100640009C91169732C0F80185819681DC01ED916D
:10065000FC910190F081E02D6AE30995EC01F8012D
:1006600085819681DC01ED91FC910190F081E02D76
:1006700060E222C0F80185819681DC01ED91FC9158
:100680000190F081E02D6CE20995EC016EE971E0DA
:10069000F801858196810E9484160FC0C8010E94CE
:1006A0009202EC01F80185819681DC01ED91FC91CB
:1006B0000190F081E02D6F2D09958C0F9D1FF801A1
:1006C000F482DF91CF911F910F91FF9008951782CF
:1006D00059CFCF93DF93EC01888199810E948416D2
:1006E0002A813B81820F931F9B838A83DF91CF9165
:1006F00008958F929F92AF92BF92EF92FF920F93C5
:100700001F93CF93DF93CDB7DEB766970FB6F894FC
:10071000DEBF0FBECDBF7C011E8A8E010A5E1F4F59
:100720008AE0882E912CA12CB12CCB01BA01A50115
:1007300094010E941721942F852F605DF801629328
:100740008F01A901692F782F4115510561057105A8
:1007500061F7BF01C7010E94690366960FB6F8945E
:10076000DEBF0FBECDBFDF91CF911F910F91FF90E4
:10077000EF90BF90AF909F908F900895FF920F934E
:100780001F93CF93DF936115710549F460EB71E01E
:10079000DF91CF911F910F91FF900C9469038B0112
:1007A000EC0162E2CE010E944301F80161918F01E8
:1007B000662351F0E1EAF1E0F080FF2099F39181A6
:1007C000961759F03296F8CF62E2CE01DF91CF91C1
:1007D0001F910F91FF900C9443016CE5CE010E9494
:1007E00043016F2DDFCF0F931F93CF93DF938C01C6
:1007F000EB016BE7CE010E944301F80102811381F6
:1008000001151105A9F0F80162817381CE010E94E2
:10081000BE036AE3CE010E944301BE01C8010496F3
:100820000E942504F801008111810115110541F490
:100830006DE7CE01DF91CF911F910F910C94430191
:100840006CE2CE010E944301DBCF4F925F926F9228
:100850007F929F92AF92BF92CF92DF92EF92FF92E0
:100860000F931F93CF93DF938C01EB01FC01A080CA
:10087000B180F8E0AF16B10408F07BC0F501EC5C84
:10088000FF4F0C94311BFC01028113816BE5CE01FB
:100890000E944301F801028113810115110559F0ED
:1008A000BE01C80102960E942504F8010081118151
:1008B0000115110599F46DE5CE01DF91CF911F91DE
:1008C0000F91FF90EF90DF90CF90BF90AF909F90EF
:1008D0007F906F905F904F900C9443016CE2CE013B
:1008E0000E944301DACFFC0182819381DF91CF9195
:1008F0001F910F91FF90EF90DF90CF90BF90AF903E
:100900009F907F906F905F904F900C94F303FC0149
:1009100062817381CE01DF91CF911F910F91FF9082
:10092000EF90DF90CF90BF90AF909F907F906F90AF
:100930005F904F900C94BE03FC016281738157C09D
:100940006DE2CE010E944301F8014281538164812E
:10095000758117C1FC0182819381A481B581892BA6
:100960008A2B8B2B19F46AEB71E041C065EB71E0C7
:100970003EC088EF982E9A0CF801C280D380E480A4
:10098000F580A7019601C701B6010E94651C882366
:1009900019F060EC71E02BC020E030E0A901C70144
:1009A000B6010E94CD1F87FF08C06DE2CE010E94F4
:1009B0004301F7FAF094F7F8F09426013701E89430
:1009C00077F82FEF3FEF4FE75FE7C301B2010E94D7
:1009D000651C81111EC02FEF3FEF4FE75FE7C3019A
:1009E000B2010E94CD1F1816A4F464EC71E0CE0190
:1009F000DF91CF911F910F91FF90EF90DF90CF90FB
:100A0000BF90AF909F907F906F905F904F900C94AD
:100A1000690320E030E04AE754E4C701B6010E94D0
:100A2000601C00E010E018160CF12FE632E143E8FC
:100A30005AE3C701B6010E94CD1F87FF37C016C019
:100A400020E030E040E85FE3C701B6010E94CD1F1F
:100A500087FF15C00150110920E030E040E251E469
:100A6000C701B6010E9433206B017C0120E030E019
:100A7000A901C701B6010E94CD1F8111E1CF20E07D
:100A800030E040E251E4C701B6010E94601C181634
:100A90006CF40F5F1F4F20E030E040E251E4C701EB
:100AA000B6010E94B81B6B017C01E9CF892D0E9421
:100AB0001E0120E030E040E05FE30E9433209B0114
:100AC000AC01C701B6010E944C1B2B013C010E94E6
:100AD000311C6B017C010E94D21F9B01AC01C30140
:100AE000B2010E944B1B2B013C01B701A601CE01B4
:100AF0000E947903992021F06EE2CE010E94430109
:100B0000F8E0AF1619F120E030E040E251E4C30113
:100B1000B2010E9433202B013C010E942A1CF62EB8
:100B2000062E000C770B880B990B0E94D41F9B019B
:100B3000AC01C301B2010E944B1B2B013C0160E3DD
:100B40006F0DCE010E944301AA94DACF17FF0EC0A9
:100B50006DEC71E0CE010E94690344275527401BCC
:100B6000510B052E000C660B770B0BC00115110500
:100B7000D1F065E6CE010E944301A801110F660B7A
:100B8000770BCE01DF91CF911F910F91FF90EF90E6
:100B9000DF90CF90BF90AF909F907F906F905F90CD
:100BA0004F900C947903DF91CF911F910F91FF909B
:100BB000EF90DF90CF90BF90AF909F907F906F901D
:100BC0005F904F9008950C94FF1C0F931F93CF9349
:100BD000DF938C01EB0188E2FB0111928A95E9F722
:100BE0004BE050E060ED71E0CE010E947F1E1B865D
:100BF00081E090E0A0E0B0E08C879D87AE87BF8762
:100C0000F80187819085A185B285888B998BAA8B05
:100C1000BB8B85E090E0A0E0B0E08C8B9D8BAE8B31
:100C2000BF8B1CA21DA21EA21FA280E090EEABEA09
:100C3000B7E4888F998FAA8FBB8F1C8E1D8E1E8E56
:100C40001F8E80E090E0A0E8BFE388A399A3AAA349
:100C5000BBA3DF91CF911F910F910895CF93DF93A5
:100C60001F92CDB7DEB781E08093BA0289E280930C
:100C7000DC021092BB021092DD028EED92E04983FD
:100C80000E9468124981642F8EED92E00E946812E2
:100C900081E00F90DF91CF910C947117CF93DF9388
:100CA00081E08093BA0289E28093DC021092BB0259
:100CB0001092DD028EED92E00E94681281E00E94A7
:100CC000711782E090E00E94CE178EED92E00E94B4
:100CD0001C12EC018EED92E00E941C1220E030E02C
:100CE000382FC9018C2B9D2BDF91CF9108951F9335
:100CF000CF93DF93EC011092720210927102109266
:100D0000BB021092DD021092B90211E01093B802FA
:100D10001092930282E10E94171883E10E94171833
:100D20008091B9008E7F8093B9008091B9008D7F4A
:100D30008093B90088E48093B80085E48093BC0078
:100D40001093BA0289E28093DC021092BB021092E7
:100D5000DD0262EB8EED92E00E94681281E00E945B
:100D6000711781E090E00E94CE178EED92E00E9414
:100D70001C12803581F41B876B817C81CE010E941F
:100D800054086D817E81CE010E947A08CE010E94B6
:100D9000D00681E001C080E0DF91CF911F910895DE
:100DA000CF93DF93EC018B85882339F040E060EA34
:100DB000CE01DF91CF910C942E06CE010E947706D2
:100DC0008111F4CFDF91CF9108958F929F92AF92CE
:100DD000BF92CF92DF92EF92FF92CF93DF93EC011D
:100DE0000E94E4144B015C01CC84DD84EE84FF841A
:100DF0006C157D058E059F0528F46C877D878E8791
:100E00009F8734C02B813C81A8E7B0E00E947B2102
:100E1000C60ED71EE81EF91EC814D904EA04FB0446
:100E200028F566EBCE010E944E06A0E0B0E0DC01A2
:100E300099278827888B998BAA8BBB8B64EBCE0173
:100E40000E944E06AC0160E070E088899989AA8909
:100E5000BB89842B952BA62BB72B888B998BAA8BC0
:100E6000BB8BCE010E94D00681E001C080E0DF9103
:100E7000CF91FF90EF90DF90CF90BF90AF909F9079
:100E80008F90089502960C94E506CF93DF93EC01C2
:100E90008B85882339F043E960EACE01DF91CF9159
:100EA0000C942E06CE010E9477068111F4CFDF91BB
:100EB000CF9108950F931F93CF93DF93EC018C0193
:100EC0000E5F1F4F8D85882351F0C8010E94450792
:100ED0000E94E4146E877F87888B998B05C0C801B8
:100EE0000E9477068111F1CFDF91CF911F910F9171
:100EF00008958F929F92AF92BF92CF92DF92EF921E
:100F0000FF921F93CF93DF93EC018B85882329F009
:100F1000CE010E94450710E027C0CE010E9477064F
:100F20008111F6CF60E070E090E049C00E94BF14EC
:100F3000DC01CB0188199909AA09BB09883E9340B5
:100F4000A105B10558F021E0C21AD108E108F10865
:100F500088EE880E83E0981EA11CB11CC114D10438
:100F6000E104F10419F71F5F812F90E02B813C8190
:100F70002817390754F00E94BF144B015C0198E711
:100F8000C92ED12CE12CF12CD1CF66EBCE010E94E1
:100F90004E066C01E12CF12C7601DD24CC2464EBAF
:100FA000CE010E944E06AC0160E070E0C42AD52A52
:100FB000E62AF72ACE010E94D006B601C701DF91CA
:100FC000CF911F91FF90EF90DF90CF90BF90AF90A7
:100FD0009F908F9008954F925F926F927F928F9221
:100FE0009F92AF92BF92CF92DF92EF92FF920F93B8
:100FF0001F93CF93DF938C01EB010E947907C80107
:101000000E9479076B017C0127016624772484E222
:10101000FE0111928A95E9F784E290E0A0E0B0E049
:1010200088839983AA83BB83F80187819085A185F2
:10103000B2858C839D83AE83BF8385E090E0A0E082
:10104000B0E088879987AA87BB870E94E414688BE1
:10105000798B8A8B9B8BFFEF4F165F0651F08FEFDA
:10106000C816D80631F0A201B601C8010E94A40139
:1010700003C060E070E0CB010E94D21F6C8B7D8BBF
:101080008E8B9F8B81E0DF91CF911F910F91FF900D
:10109000EF90DF90CF90BF90AF909F908F907F9018
:1010A0006F905F904F9008950F931F93CF93DF93AE
:1010B000EC01162F072F8B85882391F0CE010E941B
:1010C00045071B830C834D81412B61EACE010E94B1
:1010D0002E06CE01DF91CF911F910F910C94D00677
:1010E000CE010E9477068111E9CFDF91CF911F9148
:1010F0000F9108950F931F93CF93DF93EC01162F59
:10110000072F8B85882391F0CE010E9445071D8310
:101110000E834B81412B61EACE010E942E06CE0147
:10112000DF91CF911F910F910C94D006CE010E94B8
:1011300077068111E9CFDF91CF911F910F9108952B
:10114000CF93DF93EC012296CE010E9477068111A6
:101150001CC0C8E7D0E0FE016491611107C06EE9D0
:1011600071E08AEE92E00E9484160EC0E091EA02DD
:10117000F091EB020190F081E02D8AEE92E009956A
:101180002196892B41F7EBCFFFCF60E170E0CE01D4
:101190000E947A0865E070E0CE01DF91CF910C9457
:1011A0005408CF93DF93CDB7DEB763970FB6F894AB
:1011B000DEBF0FBECDBF1C861B862EE131E03A8715
:1011C00029877E876D872F852078206220682F876A
:1011D0001C821B8226E231E03A8329839E01275F2D
:1011E0003F4F3F832E831D82188628503109398B4B
:1011F000288B1B8A1A8ABE01605F7F4F0E94F3030F
:101200008A899B8963960FB6F894DEBF0FBECDBF67
:10121000DF91CF910895DB01109749F0ED91FC919A
:1012200011970190F081E02DBC01CD01099480E07F
:1012300090E00895CF93DF93EC01BC0184E090E04F
:101240000E940B09009741F0FC01D183C0831382F7
:101250001282DF91CF910895DF91CF910C940C0110
:10126000AF92BF92CF92DF92EF92FF920F931F93B4
:10127000CF93DF93FC0180819181009761F4DF912E
:10128000CF911F910F91FF90EF90DF90CF90BF9083
:10129000AF900C940C016B018F010E941A097C0124
:1012A000B601F801828193810E944F0DEC01892BD8
:1012B00081F4C8010E94940DEC01892BC9F0F8015A
:1012C00060817181C6010E946B0D009789F09B833C
:1012D0008A83F70180819181892B19F420E030E025
:1012E00003C0570127E030E03D832C83AE82BF82EC
:1012F000C701DF91CF911F910F91FF90EF90DF9089
:10130000CF90BF90AF9008959F92AF92BF92CF922F
:10131000DF92EF92FF920F931F93CF93DF9300D052
:1013200000D000D0CDB7DEB7D82EC92E082F192F88
:10133000F801819191918F010E941A097C016BE75C
:10134000C8010E94F90D882309F445C06DE7C80162
:101350000E94F90D811142C086E0982E8D2D9C2DA2
:101360000E942D115C01892BB1F16AE3C8010E9432
:10137000F90D882381F11A821982BE016F5F7F4FB8
:101380008D2D9C2D0E947618882329F1B501F70137
:10139000828193810E94050D009741F4C7010E944C
:1013A000940D0097C1F0FC01B382A282FE01319638
:1013B000DC011496892D01900D928A95E1F76DE775
:1013C000C8010E94F90D811109C06CE2C8010E9498
:1013D000F90D8111C3CF0E940C0101C0C7012696EF
:1013E0000FB6F894DEBF0FBECDBFDF91CF911F9136
:1013F0000F91FF90EF90DF90CF90BF90AF909F90B4
:1014000008950F931F93CF93DF93CDB7DEB7279740
:101410000FB6F894DEBF0FBECDBF8C010896F80161
:10142000938382838CE291E0958384831782168272
:101430008EE291E091838083FB018081918100970E
:1014400011F48FEA91E01A8309839C838B831E83B6
:101450000D838AE08F83CE0101960E948409F801F2
:10146000EC5CFE4F9183808327960FB6F894DEBF25
:101470000FBECDBFDF91CF911F910F910895CF92F5
:10148000DF92EF92FF920F931F93CF93DF93CDB72D
:10149000DEB7C056D1400FB6F894DEBF0FBECDBF49
:1014A0007C016B018C010E5F1F4FC8010E94E50695
:1014B0008823D9F3BE01695C7E4FC8010E94E5050F
:1014C000B601CE0101960E94010A6AEF70E0CB5C82
:1014D000DE4F88819981C553D1400E94300962EF67
:1014E00070E00E9430098C01AE01495C5E4F6BEEEA
:1014F00070E00E94620EF70187819085C15ADE4F2D
:1015000099838883CF55D140AE01415A5E4F66EE34
:1015100070E0C8010E94180EF7018581968101963E
:1015200044E6489F9001499F300D1124C15ADE4F77
:1015300039832883CF55D140AE01415A5E4F6FEDBC
:1015400070E0C8010E94180EB601CE018B5C9E4F60
:101550000E94210DC05ADE4F0FB6F894DEBF0FBEB9
:10156000CDBFDF91CF911F910F91FF90EF90DF9052
:10157000CF900895CF92DF92EF92FF921F93CF9377
:10158000DF93CDB7DEB7C653D1400FB6F894DEBFB8
:101590000FBECDBF6C01CE0101960E94010ACB5C4B
:1015A000DE4FE881F981C553D140E280F38067EDD9
:1015B00070E0C7010E944F0D892B09F44FC06FECFA
:1015C00070E0C7010E944F0D009709F447C0FC016D
:1015D00084819581079709F041C067EC70E0C701ED
:1015E0000E944F0DFC01892B39F08481958107976A
:1015F00019F4E680F78003C00E940C017C0162ECC4
:1016000070E0F701828193810E944F0D892B61F078
:101610006DEB70E0C7010E94D610BC01C6010296B6
:101620000E947A0811E001C010E066EB70E0F7015B
:10163000828193810E944F0D892B89F06FEA70E0BF
:10164000C7010E94D610019764E670E00E941D1B3E
:10165000C60102960E94540811E001C010E0812FDB
:10166000CA5CDE4F0FB6F894DEBF0FBECDBFDF9170
:10167000CF911F91FF90EF90DF90CF9008958F92C0
:101680009F92AF92BF92EF92FF920F931F93CF93CF
:10169000DF93CDB7DEB7CA53D1400FB6F894DEBFA3
:1016A0000FBECDBFFC017B01628973898489958956
:1016B0008C0122273327C75CDE4F19830883C95367
:1016C000D140C95CDE4F79836883C753D1400F3F57
:1016D000AFEF1A0761F06F3FAFEF7A0741F0A80153
:1016E000CF0102960E94A4014B015C0103C0812C32
:1016F000912C5401B701CE0101960E94010A67EABC
:1017000070E0CB5CDE4F88819981C553D1400E9447
:1017100030096FE970E00E9430098C01AE01495C2C
:101720005E4F68ED71E00E946002AE01475C5E4F63
:101730006DED71E0C8010E94600260EE71E0F80199
:10174000828193810E94050DFC01892B51F4C8010F
:101750000E94940DFC01892B61F080EE91E093834F
:10176000828384E090E09583848386829782A0863A
:10177000B186B701CE018B5C9E4F0E94210DC65CE5
:10178000DE4F0FB6F894DEBF0FBECDBFDF91CF9115
:101790001F910F91FF90EF90BF90AF909F908F900F
:1017A000089508950F931F93CF93DF93FC018281D7
:1017B00093810E941F17EC01892BC1F00C811D81C0
:1017C0000130110559F46E817F816115710531F089
:1017D00080EB91E00E946F1E892B41F001501109AE
:1017E0000230110518F48E819F8102C080E090E0E4
:1017F000DF91CF911F910F910895CF93DF93EC016B
:1018000008969B838A838CE291E09D838C831F8260
:101810001E828EE291E099838883CE010E941A098C
:10182000CC5CDE4F99838883DF91CF910895FC01D2
:10183000848195810E94CA1581E090E00895EF921D
:10184000FF920F931F93CF93DF93CDB7DEB7C653AD
:10185000D1400FB6F894DEBF0FBECDBF88E5E82EAD
:1018600082E0F82E00E010E0C8010E94F120D701CC
:101870008D937D01882329F00F5F1F4F09311105DA
:1018800099F71092700280915802811122C06EE384
:1018900071E0CE0101960E9411160D811E81011585
:1018A000110519F41092580210C00831110510F0FA
:1018B00008E110E069817A81A80188E592E00E9440
:1018C0007F1EF801E85AFD4F1082CE0101960E945A
:1018D0000C16CE0101960E94FD0BCB5CDE4F888179
:1018E0009981C553D1400E9498196CE271E08FE84C
:1018F00093E00E94A3156FE873E0CE018B5C9E4FCE
:101900000E94F116CE0101960E94FD0BCB5CDE4FCA
:1019100088819981C553D1400E9498196CE271E089
:101920008FE893E00E94A31569E873E0CE018B5C19
:101930009E4F0E94F11684E690E0A0E0B0E0809314
:10194000EE029093EF02A093F002B093F102E091C7
:10195000FA02F091FB0282E08083E091FA02F091BA
:10196000FB021082E091F602F091F7021082E09102
:10197000F802F091F90280E1808310920203E09175
:10198000FE02F091FF0286E08083E091FC02F0917C
:10199000FD02808180618083E091FC02F091FD0274
:1019A000808188608083E091FC02F091FD0280815B
:1019B00080688083E091FC02F091FD0280818F7D40
:1019C00080838091870390918803DC01ED91FC91E5
:1019D0000190F081E02D0995809187039091880313
:1019E000DC01ED91FC910280F381E02D0995CA5C48
:1019F000DE4F0FB6F894DEBF0FBECDBFDF91CF91A3
:101A00001F910F91FF90EF9008950F931F93CF9325
:101A1000DF93EC018B01209759F06A817B81C8012B
:101A20000E946F1E892B39F00990D881C02DF3CF09
:101A300080E090E001C0CE01DF91CF911F910F9126
:101A40000895EF92FF920F931F93CF93DF9300D0EF
:101A500000D000D0CDB7DEB77C018B01CB010E9456
:101A60005D18F701808191811C821B8226E431E0A0
:101A70003A8329831E830D83BE016F5F7F4F0E94CF
:101A8000D108C80126960FB6F894DEBF0FBECDBFB1
:101A9000DF91CF911F910F91FF90EF9008950F93D9
:101AA0001F93CF93DF93EC018B01209759F0B8017E
:101AB0008A819B810E94B11F892B39F00990D881BE
:101AC000C02DF3CF80E090E001C0CE01DF91CF9137
:101AD0001F910F910895EF92FF920F931F93CF9351
:101AE000DF930097C1F08B01EC010E94C11F0196AA
:101AF0007C01D801ED91FC910190F081E02DBC01B9
:101B0000C80109958C01009731F0A701BE010E9420
:101B1000A81FC80102C080E090E0DF91CF911F9123
:101B20000F91FF90EF900895CF93DF93EC016881C0
:101B300079818AE090E00E940B09009729F0FC016E
:101B40001182108215821482EA81FB81309751F054
:101B5000208131812115310511F0F901F9CF9183EF
:101B6000808302C09B838A83DF91CF910895FC011B
:101B7000A081B1818C918D3051F024F48950823054
:101B8000B8F505C0803219F08F3219F0089511961A
:101B90002CC011968C9111978A3219F08F32D1F0A6
:101BA00008951196B183A083A081B181CD010196E2
:101BB0009183808311968C9111978823C9F08A3282
:101BC00099F712968C9112978F3271F713960DC078
:101BD0008A3071F2A081B181CD0101969183808319
:101BE00011968C918111F4CF03C0B183A083C0CF33
:101BF00008950F931F93CF93DF931F92CDB7DEB756
:101C00008C0169830E94B70DD801ED91FC91119769
:101C100080816981861305C03196ED93FC9381E044
:101C200001C080E00F90DF91CF911F910F91089537
:101C3000CF92DF92EF92FF920F931F93CF93DF9398
:101C40008C017B016A01FC01828193810E944F0D0E
:101C5000EC01892B91F4C8010E94940DEC01892BB1
:101C600011F480E026C0F80160817181C7010E94F3
:101C70006B0D0097B1F39B838A83F60140815181FC
:101C800057FD07C0052E000C660B770B84E090E033
:101C900009C0519541955109052E000C660B770B33
:101CA00085E090E09D838C834E835F83688779878E
:101CB00081E0DF91CF911F910F91FF90EF90DF9026
:101CC000CF900895CF92DF92EF92FF920F931F93E0
:101CD000CF93DF938C017B016A01FC0182819381A8
:101CE0000E944F0DEC01892B91F4C8010E94940DC4
:101CF000EC01892B11F480E011C0F8016081718141
:101D0000C7010E946B0D0097B1F39B838A8382E029
:101D100090E09D838C83DF82CE8281E0DF91CF9142
:101D20001F910F91FF90EF90DF90CF900895EF9269
:101D3000FF920F931F93CF93DF93CDB7DEB7C653B8
:101D4000D1400FB6F894DEBF0FBECDBFCE010196D5
:101D50000E94FD0B48E552E061E171E0CB5CDE4F93
:101D600088819981C553D1400E94620ECB5CDE4FC1
:101D7000E880F980C553D140F70102811381011534
:101D8000110569F06AE071E0F801828193810E9497
:101D9000B11F892BB1F0F80100811181F0CFC7018B
:101DA0000E94940D8C01892BE1F0F7016081718113
:101DB0008AE091E00E946B0D009799F0F8019383FF
:101DC0008283F7016081718182E091E00E946B0D56
:101DD000009739F022E030E0F801358324839783BF
:101DE00086836AEE72E0CB5CDE4F88819981C553B1
:101DF000D1400E94D108CA5CDE4F0FB6F894DEBF16
:101E00000FBECDBFDF91CF911F910F91FF90EF904B
:101E10000895CF92DF92EF92FF920F931F93CF938B
:101E2000DF93CDB7DEB7C854D1400FB6F894DEBF0C
:101E30000FBECDBF7C016FEA71E0CE01835C9E4F87
:101E40000E9449166FEA71E0CE01895C9E4F0E94A4
:101E50004916B701CE0101960E94010ACB5CDE4F04
:101E600008811981C553D140D8018D919C9111975A
:101E7000892B09F46FC11296CD90DC90139764EE14
:101E800071E0C6010E941F17892B91F064EE71E08A
:101E9000C8010E94D20BBC01CE018D5B9E4F0E94F7
:101EA0004916BE016D5B7E4FCE01835C9E4F18C00C
:101EB00068EE71E0C6010E941F17892BC1F068EE21
:101EC00071E0C8010E94D20BBC01CE018D5B9E4F18
:101ED0000E944916BE016D5B7E4FCE01895C9E4F0C
:101EE0000E946A15CE018D5B9E4F0E940C166BEE10
:101EF00071E0CE0101960E944916BE016F5F7F4FCF
:101F0000CE01835C9E4F0E943A158C01CE01019652
:101F10000E940C16012B81F4809187039091880315
:101F2000DC01ED91FC910084F185E02D6FE873E018
:101F300009958FE893E017C060EF71E0CE0101963C
:101F40000E944916BE016F5F7F4FCE01835C9E4F9A
:101F50000E943A158C01CE0101960E940C16012BAD
:101F600029F489E893E00E948119F4C0C55CDE4F32
:101F700008811981CB53D1400115110579F4809165
:101F8000870390918803DC01ED91FC910284F38535
:101F9000E02DB7010995811106C15BC0083111051B
:101FA00010F008E110E0C95CDE4F68817981C75309
:101FB000D140A80188E592E00E947F1EF801E85A0E
:101FC000FD4F108288E5E82E82E0F82E00E010E058
:101FD000F70161917F01C8010E94F9200F5F1F4F37
:101FE00008311105A9F760E088E190E00E94F9202E
:101FF0006FE873E0CE0101960E94010ABE01695CA0
:102000007E4FCB5CDE4F88819981C553D1400E94C1
:10201000BC196FE873E0CE018B5C9E4F0E94F116F5
:1020200069E873E0CE0101960E94010ABE01695C75
:102030007E4FCB5CDE4F88819981C553D1400E9491
:10204000BC1969E873E0CE018B5C9E4F0E94F116CB
:10205000AAC06DE271E0CE018D5B9E4F0E94111609
:10206000CE0101960E94FD0B48E552E06AE271E064
:10207000CB5CDE4F88819981C553D1400E94620EAE
:10208000CB5CDE4FE880F980C553D14065EF71E04D
:10209000F701828193810E941F178C01892B69F4BB
:1020A000C7010E94940D8C01892BD9F085EF91E036
:1020B000D80113969C938E931297F70160817181DA
:1020C00082E291E00E946B0D009759F022E030E02F
:1020D000D80115963C932E93149717969C938E9344
:1020E0001697CB5CDE4FE880F980C553D140F701ED
:1020F000028113810115110509F046C0C7010E9434
:10210000940D8C01892BB9F0D7016D917C9184E1FC
:1021100091E00E946B0D009771F0F8019383828328
:10212000B8016C5F7F4FAE014D5B5E4FD7018D9163
:102130009C910E943B176AEE72E0CB5CDE4F888177
:102140009981C553D1400E94D108CE018D5B9E4F2D
:102150000E940C16CE01895C9E4F0E940C16CE0187
:10216000835C9E4F0E940C16C85BDE4F0FB6F8943E
:10217000DEBF0FBECDBFDF91CF911F910F91FF90BA
:10218000EF90DF90CF90089564E171E0D80112964E
:102190008D919C9113970E94B11F892B09F2F80130
:1021A00000811181A7CF0E94970ED4CFCF93DF93E8
:1021B000FC01828193810E944F0DFC01892B09F45F
:1021C00047C0848195818330910534F48130910535
:1021D000DCF4892B99F12BC08530910584F00597AB
:1021E00031F586819781A085B1859C01AD01662777
:1021F0007727CB01621B730B840B950B27C066817D
:1022000077818085918522C0C681D7812097B1F0E2
:10221000BE0185EB91E00E946F1E892B99F04AE088
:1022200050E060E070E0CE010E948E1E0FC066811B
:102230007781808591850E942A1C08C060E070E04B
:10224000CB0104C061E070E080E090E0CB0102C00F
:1022500080E090E0DF91CF910895EF92FF920F938D
:102260001F93CF93DF938C01DC011496CD91DC9109
:102270001597EA80FB808E819F81E80EF91EC801C8
:1022800002960E94B70DD8011296ED91FC9113971A
:102290009081973291F1923281F180ED890F8A30ED
:1022A00060F0892F8F7D81548A3138F09B3229F07C
:1022B00083ED890F823008F060C0F80122813381FC
:1022C0002F5F3F4F338322832E813F81A9014F5FD0
:1022D0005F4F6C817D816417750740F06A817B8157
:1022E000FB01E20FF31F5F834E839083D8011296A8
:1022F000ED91FC9113979081D0CF3196D801139630
:10230000FC93EE931297D8011296ED91FC911397DE
:102310002081222391F1AF014F5F5F4F13965C93B1
:102320004E931297291749F12C35A9F42181A5EA7A
:10233000B1E08C91882339F0821303C011962C915F
:1023400002C01296F6CF2223C1F03296D80113961E
:10235000FC93EE9312974E815F81BA016F5F7F4FBE
:10236000EC81FD81E617F70770F2EA81FB81E40F4B
:10237000F51F7F836E832083C6CF8E819F819C0152
:102380002F5F3F4F4C815D814217530748F04A81D0
:102390005B81FA01E80FF91F3F832E83108202C090
:1023A000E12CF12CC701DF91CF911F910F91FF908C
:1023B000EF90089585ED8093BC008091BC0084FD72
:1023C000FCCF1092B902089540913302262F30E0DD
:1023D000240F311D21323105DCF42091B902243063
:1023E000C9F4FC0180E090E0861758F43091330284
:1023F0002191DC01AF5EBD4FA30FB11D2C9301965F
:10240000F3CF80913302680F6093330280E0089528
:1024100081E0089582E008950895E091720280912C
:102420007102E81730F4F0E0ED58FD4F808190E044
:1024300008958FEF9FEF089590917202809171023D
:10244000981750F4E92FF0E0ED58FD4F208130E06F
:102450009F5F9093720202C02FEF3FEFC901089572
:102460008091710290E020917202821B910908957F
:10247000CF92DF92EF92FF920F931F93CF93DF9350
:102480007C01262F972F8A018091BA02882391F030
:10249000C62FD72F6E01C40ED51ECC15DD0571F0E9
:1024A0006991D701ED91FC910190F081E02DC70178
:1024B0000995F3CF642F822F0E94E411C801DF91A8
:1024C000CF911F910F91FF90EF90DF90CF900895E3
:1024D000CF93DF931F92CDB7DEB769832091BA0205
:1024E0002223D1F02091DD02203240F021E030E0C3
:1024F000FC013383228380E090E015C08091BB0211
:10250000E82FF0E0E454FD4F998190838F5F809332
:10251000BB028093DD0205C061E0CE0101960E94FE
:10252000E41181E090E00F90DF91CF91089508953C
:10253000CF92DF92EF92FF920F931F93CF93DF938F
:102540006C017A018B01C0E0D0E0CE15DF0589F087
:10255000D8016D918D01D601ED91FC910190F08132
:10256000E02DC6010995892B11F47E0102C0219648
:10257000ECCFC701DF91CF911F910F91FF90EF90AA
:10258000DF90CF900895FC01918D828D981761F0B6
:10259000828DDF01A80FB11D5D968C91928D9F5F9A
:1025A0009F73928F90E008958FEF9FEF0895FC0145
:1025B000918D828D981731F0828DE80FF11D858DF8
:1025C00090E008958FEF9FEF0895FC01918D228D8B
:1025D000892F90E0805C9F4F821B91098F73992710
:1025E00008958AEE92E00E94E51221E0892B09F419
:1025F00020E0822F0895FC01848DDF01A80FB11D1A
:10260000A35ABF4F2C91848D90E001968F73992728
:10261000848FA689B7892C93A089B1898C91806415
:102620008C93938D848D981306C00288F389E02DD6
:1026300080818F7D80830895EF92FF920F931F9387
:10264000CF93DF93EC0181E0888F9B8D8C8D981365
:1026500005C0E889F989808185FD24C0F62E0B8D9F
:1026600010E00F5F1F4F0F731127E02E8C8DE812C3
:102670000CC00FB607FCFACFE889F989808185FF85
:10268000F5CFCE010E94FB12F1CF8B8DFE01E80F3A
:10269000F11DE35AFF4FF0820B8FEA89FB8980819D
:1026A000806207C0EE89FF896083E889F9898081AB
:1026B0008064808381E090E0DF91CF911F910F9142
:1026C000FF90EF900895CF93DF93EC01888D8823DE
:1026D000C9F0EA89FB89808185FD05C0A889B9898F
:1026E0008C9186FD0FC00FB607FCF5CF808185FF6A
:1026F000F2CFA889B9898C9185FFEDCFCE010E94D8
:10270000FB12E7CFDF91CF91089580E090E0892B15
:1027100029F00E94F11281110C94000008950E948A
:10272000611E1F920F920FB60F9211242F933F93A9
:102730004F935F936F937F938F939F93AF93BF93C9
:10274000EF93FF938091B900887F803609F49CC095
:1027500068F5883209F45BC090F4803109F454C004
:1027600038F4882309F4F6C0883009F44DC0F6C067
:10277000883109F44CC0803209F45DC0EFC0803468
:1027800009F468C048F4803309F455C0883309F06F
:10279000E5C08093B702D8C0803509F44FC08835B2
:1027A00009F45DC0883409F0D9C0D6C0883909F46D
:1027B000C7C0A8F4883709F467C038F4883609F42C
:1027C00063C0803709F460C0C9C0883809F4B8C054
:1027D000803909F45FC0803809F0C0C05BC0803B1D
:1027E00009F486C038F4803A09F466C0883A09F4DE
:1027F0007FC0B4C0803C09F4A7C0883C09F4A4C0E1
:10280000883B09F48AC0AAC08091940210C09091BC
:10281000B6028091B502981770F5E091B60281E09A
:102820008E0F8093B602F0E0EB56FD4F80818093CF
:10283000BB0085EC86C08093B7028EC0E091B602E3
:1028400081E08E0F8093B6028091BB00F0E0EB56E2
:10285000FD4F80839091B6028091B5026EC0E091E9
:10286000B60281E08E0F8093B6028091BB00F0E04B
:10287000EB56FD4F80838091B80281116DC081E0DD
:102880008093930284EA61C083E08093B90210923E
:102890005702CFCF80915702803208F051C0E091AB
:1028A000570281E08E0F809357028091BB00F0E0C9
:1028B000E95CFD4F8083BDCF85EC8093BC00109216
:1028C000B90280915702803230F4E0915702F0E073
:1028D000E95CFD4F10826091570270E0E091350293
:1028E000F091360287E392E009951092570236C0C4
:1028F00084E08093B9021092340210923302E09186
:102900003102F0913202099580913302811105C0A4
:1029100081E08093330210921102E091340281E051
:102920008E0F80933402F0E0EF5EFD4F8081809344
:10293000BB009091340280913302981708F479CF4C
:1029400085E88093BC000AC085EC8093BC0010929F
:10295000B90204C01092B7020E94DA11FF91EF9100
:10296000BF91AF919F918F917F916F915F914F91A7
:102970003F912F910F900FBE0F901F9018953FB76A
:10298000F89480910D0290910E02A0910F02B091E7
:10299000100226B5A89B05C02F3F19F00196A11D76
:1029A000B11D3FBFBA2FA92F982F8827820F911DE5
:1029B000A11DB11DBC01CD0142E0660F771F881F2C
:1029C000991F4A95D1F708952FB7F894609109029D
:1029D00070910A0280910B0290910C022FBF089512
:1029E0001F920F920FB60F9211242F933F938F9344
:1029F0009F93AF93BF938091090290910A02A09197
:102A00000B02B0910C023091080223E0230F2D3706
:102A100020F40196A11DB11D05C026E8230F0296E2
:102A2000A11DB11D209308028093090290930A0210
:102A3000A0930B02B0930C0280910D0290910E02B4
:102A4000A0910F02B09110020196A11DB11D8093BB
:102A50000D0290930E02A0930F02B0931002BF914B
:102A6000AF919F918F913F912F910F900FBE0F903B
:102A70001F901895CF93DF93DC01ED91FC91EB0152
:102A8000A881B981309711F01097C9F4109759F0C7
:102A9000EB012C813D81232B31F08C9190E09195BD
:102AA0008195910914C0309781F0DC0114968D91C5
:102AB0009C911597892B49F0808190E008C0BD0159
:102AC000CF01DF91CF910C946F1E80E090E0DF91F9
:102AD000CF9108950F931F93CF93DF938C01EB0158
:102AE000FC01808191810097B1F068817981611545
:102AF000710579F0428153812C813D814217530742
:102B000040F00E94781E8C819D81F801958384831A
:102B100013C00E94FF1C88819981F80191838083F2
:102B20008A819B81938382838C819D819583848319
:102B3000198218821B821A821D821C82DF91CF911A
:102B40001F910F9108950F931F93CF93DF93EC0183
:102B500088819981009729F02A813B8126173707C0
:102B600088F48B016F5F7F4F0E94971D009761F083
:102B7000998388831B830A832C813D81232B11F445
:102B8000FC01108281E001C080E0DF91CF911F91B4
:102B90000F910895EF92FF920F931F93CF93DF93BE
:102BA00000D0CDB7DEB78C0169831A82FC01E480C6
:102BB000F580FFEFEF1AFF0AB7010E94A3158823E3
:102BC00081F0F8012081318184819581BE016F5FA0
:102BD0007F4F820F931F0E94781EF801F582E482D6
:102BE00081E00F900F90DF91CF911F910F91FF9097
:102BF000EF900895CF93DF93EC018881998100973E
:102C000011F00E94FF1C198218821D821C821B82F7
:102C10001A82DF91CF910895FC01808191810C94FB
:102C2000FF1CEF92FF920F931F93CF93DF93EC0162
:102C3000198218821B821A821D821C8261157105FD
:102C400009F18B01CB010E94C11F7C01BC01CE01A7
:102C50000E94A315811109C0CE01DF91CF911F9170
:102C60000F91FF90EF900C94FA15FD82EC82B80161
:102C700088819981DF91CF911F910F91FF90EF9003
:102C80000C94BA1FDF91CF911F910F91FF90EF909D
:102C90000895EF92FF920F931F93CF93DF93EC0170
:102CA000198218821B821A821D821C82611571058D
:102CB00021F18B01FB0101900020E9F731977F01A1
:102CC000E61AF70AB7010E94A315811109C0CE01C7
:102CD000DF91CF911F910F91FF90EF900C94FA1517
:102CE000FD82EC82B80188819981DF91CF911F919B
:102CF0000F91FF90EF900C94781EDF91CF911F9170
:102D00000F91FF90EF9008956115710579F0FB0127
:102D100001900020E9F73197AF01461B570BDC010A
:102D2000ED91FC910280F381E02D099480E090E028
:102D300008951F920F920FB60F9211242F933F9375
:102D40004F935F936F937F938F939F93AF93BF93B3
:102D5000EF93FF938AEE92E00E94FB12FF91EF91B6
:102D6000BF91AF919F918F917F916F915F914F91A3
:102D70003F912F910F900FBE0F901F9018951F92AB
:102D80000F920FB60F9211242F938F939F93EF936F
:102D9000FF93E091FA02F091FB028081E091000341
:102DA000F091010382FD12C09081809103038F5F37
:102DB0008F7320910403821751F0E0910303F0E038
:102DC000E651FD4F958F8093030301C08081FF91F1
:102DD000EF919F918F912F910F900FBE0F901F90A9
:102DE0001895EF92FF920F931F93CF93DF9300D02C
:102DF00000D000D0CDB7DEB77C018B01CB010E94A3
:102E00005D18F701808191811C821B8226E431E0EC
:102E10003A8329831E830D83BE016F5F7F4F0E941B
:102E2000D108C80126960FB6F894DEBF0FBECDBFFD
:102E3000DF91CF911F910F91FF90EF9008950F9325
:102E40001F93CF93DF93EC018B01209759F06A8198
:102E50007B81C8010E946F1E892B39F00990D881AF
:102E6000C02DF3CF80E090E001C0CE01DF91CF9183
:102E70001F910F910895CF92DF92EF92FF920F93DF
:102E80001F93CF93DF93DA012D913C91232BF9F01F
:102E9000EA016B010C811D810F5F1F4FDC01ED9179
:102EA000FC910190F081E02DB80109957C0100971B
:102EB00071F068817981A8010E94661E82E090E02D
:102EC000F60191838083F382E28281E001C080E099
:102ED000DF91CF911F910F91FF90EF90DF90CF90F6
:102EE0000895382F2091DD029091DC02213208F004
:102EF00049C08091B9028111FCCF42E04093B902F0
:102F00003093B8023FEF3093B7021092B60220938D
:102F1000B502ACEBB2E045E952E0FA013E2F341BBA
:102F2000321718F43D913193F9CF10929402209109
:102F30009402990F922B9093940290919302913066
:102F400061F410929302909194029093BB0090913F
:102F5000BC0093FDF8CF95EC01C095EE9093BC00BA
:102F60009091B9029230E1F39091B7029F3F79F0CE
:102F70008091B702803241F08091B702803331F006
:102F800084E005C081E003C082E001C083E01092CC
:102F9000BB021092DD021092BA0208959091B9021C
:102FA0009111FCCF813208F080E291E09093B90258
:102FB0009093B8022FEF2093B7021092B602280F19
:102FC0002093B5029093940290919402926590930D
:102FD000940290919302913061F410929302909137
:102FE00094029093BB009091BC0093FDF8CF95ECB8
:102FF00001C095EE9093BC009091B9029130E1F33D
:103000009091B602981710F48091B602A5E9B2E04B
:1030100023E732E0F9019E2F921B981718F49D9137
:103020009193F9CF1092720280937102089590E00B
:10303000FC01ED57FE4F2491FC01E159FE4F349104
:10304000FC01E55AFE4FE491EE23B1F1222339F160
:10305000233091F038F42130A9F0223001F584B505
:103060008F7D12C0273091F02830A1F02430B9F4C0
:10307000809180008F7D03C0809180008F77809346
:1030800080000DC084B58F7784BD09C08091B000E9
:103090008F7703C08091B0008F7D8093B000F0E007
:1030A000EE0FFF1FEF5AFE4FA591B4918FB7F89422
:1030B000EC913E2B3C938FBF0895CF93DF93EC01AF
:1030C00060E070E00E94A315811104C0CE010E944F
:1030D000FA1508C01D821C826FEA71E0888199810F
:1030E0000E94781ECE01DF91CF9108959F92AF92FA
:1030F000BF92CF92DF92EF92FF920F931F93CF93E5
:10310000DF9300D000D000D0CDB7DEB7FC019681B0
:10311000992309F4E2C06B017F01915096835F010E
:1031200082E0A80EB11CC5010E94B70DD70112960E
:10313000ED91FC91139780818B3521F08B3709F449
:1031400099C0A3C0F70100811181B80184E090E02B
:103150000E940B09009751F0DC0111961C930E930D
:1031600013961C921E9212978C0111C080919903A4
:1031700081110BC010929603109295031092980340
:103180001092970381E08093990305E913E06BE5C2
:10319000C5010E94F90D882309F44CC06DE5C501F5
:1031A0000E94F90D811157C086E0982E1A8219826B
:1031B000BE016F5F7F4FC7010E9476188823D1F14F
:1031C000F8016081718188E090E00E940B09DC01C8
:1031D000892B39F011961C921E9213961C921E9206
:1031E0001297F801228133812115310551F0F9013F
:1031F00080819181009711F09C01F9CFB183A08368
:1032000003C0F801B383A2831097A1F0FE013196A9
:103210001296892D01900D928A95E1F76DE5C50111
:103220000E94F90D811117C06CE2C5010E94F90DD1
:103230008111BCCF8091990381110BC0109296032C
:1032400010929503109298031092970381E0809357
:10325000990305E913E0D8018D919C91892B11F414
:1032600010E033C086E090E0F60191838083138301
:1032700002832AC0C7010E948409DC012D913C9180
:10328000232B71F327E030E01AC011E0873219F0E8
:10329000823209F010E0C7010E942D11009701F35E
:1032A000112359F022E030E0D60111963C932E9381
:1032B00013969C938E93129708C021E030E0F6019C
:1032C000318320839383828311E0D70116968C91FA
:1032D00016978F5F16968C9301C010E0812F26966B
:1032E0000FB6F894DEBF0FBECDBFDF91CF911F9117
:1032F0000F91FF90EF90DF90CF90BF90AF909F9095
:103300000895CF93DF93FC014481558160817181E1
:103310008AEE92E00E949812EC016EE971E08AEE6A
:1033200092E00E9484168C0F9D1FDF91CF9108952B
:10333000CF93DF93EC0168EE71E08A819B810E945C
:103340001F17FC01892B51F4CE010E94940DFC0142
:10335000892B71F088EE91E09383828382E090E084
:103360009583848388E592E09783868381E001C01A
:1033700080E0DF91CF9108950F931F93CF93DF9358
:10338000EC018B0168EE71E08A819B810E941F171E
:10339000009751F4CE010E94940D009789F028EE19
:1033A00031E0FC0133832283BC016C5F7F4FA801B5
:1033B00088819981DF91CF911F910F910C943B17D8
:1033C00080E0DF91CF911F910F9108950F931F938C
:1033D0000E94E4146093F2027093F3028093F4026B
:1033E0009093F502E091EA02F091EB020680F781FA
:1033F000E02D8AEE92E0099597FF1FC00E94E41429
:103400000091F2021091F3022091F4023091F50242
:10341000DC01CB01801B910BA20BB30B0091EE02E0
:103420001091EF022091F0023091F1028017910784
:10343000A207B307B8F28FEF9FEF1F910F91089586
:10344000CF93DF9300D000D000D0CDB7DEB7789413
:1034500084B5826084BD84B5816084BD85B5826099
:1034600085BD85B5816085BD80916E00816080934A
:103470006E001092810080918100826080938100B3
:1034800080918100816080938100809180008160C3
:10349000809380008091B10084608093B10080911E
:1034A000B00081608093B00080917A008460809346
:1034B0007A0080917A00826080937A0080917A000D
:1034C000816080937A0080917A00806880937A008E
:1034D0001092C1000E941F0C809187039091880375
:1034E000DC01ED91FC910480F581E02D09958823A4
:1034F00009F18091870390918803DC01ED91FC91A3
:103500000680F781E02D69E873E0099580918703D3
:1035100090918803DC01ED91FC910280F381E02D14
:10352000099508C0CE0101960E94090FCE010196AF
:103530000E940C168AEE92E00E94E51218161906F7
:1035400084F46FEA71E0CE0101960E9449160E9450
:10355000E61997FDE7CF682FCE0101960E94CA15A4
:10356000F6CF0E948513B8CF89E893E00E940C162D
:103570008FE893E00C940C16EEEDF2E013821282C9
:1035800088EE93E0A0E0B0E084839583A683B783C0
:103590002EE431E031832083EAEEF2E013821282DE
:1035A00084839583A683B7838EE591E0918380839E
:1035B00085EC90E09587848784EC90E097878687F8
:1035C00080EC90E0918B808B81EC90E0938B828BF0
:1035D00082EC90E0958B848B86EC90E0978B868BC9
:1035E000118E128E138E148E6FEA71E08FE893E0C5
:1035F0000E9449166FEA71E089E893E00E9449163B
:1036000086E190E00E946A1CFC0182E991E09183CE
:10361000808386E791E093838283158616821582E4
:1036200080E190E090878783118612861386148646
:10363000F0938803E0938703089597FB072E16F411
:10364000009407D077FD09D00E94371B07FC05D0F6
:103650003EF4909581959F4F0895709561957F4FA9
:103660000895EE0FFF1F0590F491E02D0994AA1B19
:10367000BB1B51E107C0AA1FBB1FA617B70710F05D
:10368000A61BB70B881F991F5A95A9F7809590958F
:10369000BC01CD0108955058BB27AA270E94631B87
:1036A0000C94B7200E94A92038F00E94B02020F08E
:1036B00039F49F3F19F426F40C94A6200EF4E095FB
:1036C000E7FB0C94A020E92F0E94C82058F3BA17FA
:1036D000620773078407950720F079F4A6F50C9428
:1036E000EA200EF4E0950B2EBA2FA02D0B01B901A4
:1036F00090010C01CA01A0011124FF27591B99F068
:10370000593F50F4503E68F11A16F040A22F232F73
:10371000342F4427585FF3CF469537952795A795C3
:10372000F0405395C9F77EF41F16BA0B620B730B6A
:10373000840BBAF09150A1F0FF0FBB1F661F771FDB
:10374000881FC2F70EC0BA0F621F731F841F48F490
:10375000879577956795B795F7959E3F08F0B0CF19
:103760009395880F08F09927EE0F97958795089500
:103770000E94CC1B0C94B7200E94B02058F00E94ED
:10378000A92040F029F45F3F29F00C94A0205111AA
:103790000C94EB200C94A6200E94C82068F3992377
:1037A000B1F3552391F3951B550BBB27AA2762173D
:1037B0007307840738F09F5F5F4F220F331F441F4A
:1037C000AA1FA9F335D00E2E3AF0E0E832D091507E
:1037D0005040E695001CCAF72BD0FE2F29D0660F6B
:1037E000771F881FBB1F261737074807AB07B0E8AE
:1037F00009F0BB0B802DBF01FF2793585F4F3AF0B4
:103800009E3F510578F00C94A0200C94EB205F3F74
:10381000E4F3983ED4F3869577956795B795F79539
:103820009F5FC9F7880F911D9695879597F9089521
:10383000E1E0660F771F881FBB1F621773078407BD
:10384000BA0720F0621B730B840BBA0BEE1F88F7CC
:10385000E09508950E94311C6894B1110C94EB20FE
:1038600008950E94D02088F09F5798F0B92F99278B
:10387000B751B0F0E1F0660F771F881F991F1AF05B
:10388000BA95C9F714C0B13091F00E94EA20B1E0B6
:1038900008950C94EA20672F782F8827B85F39F0B5
:1038A000B93FCCF3869577956795B395D9F73EF4F4
:1038B00090958095709561957F4F8F4F9F4F08959C
:1038C0000E940F2008F48FEF08950E940F20880BAC
:1038D000990B0895CF93DF938230910510F482E025
:1038E00090E0E091A303F091A40320E030E0C0E079
:1038F000D0E0309711F14081518148175907C0F04D
:103900004817590761F482819381209719F09B83AE
:103910008A832BC09093A4038093A30326C0211510
:10392000310519F04217530718F49A01BE01DF015F
:10393000EF010280F381E02DDCCF2115310509F183
:10394000281B390B2430310590F412968D919C91EF
:1039500013976115710521F0FB019383828304C0E5
:103960009093A4038093A303FD01329644C0FD010C
:10397000E20FF31F81939193225031092D933C93D1
:103980003AC02091A1033091A203232B41F420914E
:103990000201309103013093A2032093A1032091EF
:1039A0000001309101012115310541F42DB73EB7D9
:1039B0004091040150910501241B350BE091A103B6
:1039C000F091A203E217F307A0F42E1B3F0B281778
:1039D000390778F0AC014E5F5F4F2417350748F088
:1039E0004E0F5F1F5093A2034093A10381939193C5
:1039F00002C0E0E0F0E0CF01DF91CF9108950F9396
:103A00001F93CF93DF93009709F48CC0FC0132978A
:103A1000138212820091A3031091A40301151105D2
:103A200081F420813181820F931F2091A103309175
:103A3000A2032817390779F5F093A203E093A103B5
:103A400071C0D80140E050E0AE17BF0750F41296A5
:103A50002D913C911397AD012115310509F1D90143
:103A6000F3CF9D01DA013383228360817181860F58
:103A7000971F8217930769F4EC0128813981260F7B
:103A8000371F2E5F3F4F318320838A819B81938331
:103A90008283452B29F4F093A403E093A30342C04F
:103AA0001396FC93EE931297ED01499159919E0163
:103AB000240F351FE217F30771F480819181840F81
:103AC000951F029611969C938E93828193811396F3
:103AD0009C938E931297E0E0F0E0D80112968D91BE
:103AE0009C911397009719F0F8018C01F6CF8D91F6
:103AF0009C9198012E5F3F4F820F931F2091A1034D
:103B00003091A2032817390769F4309729F41092ED
:103B1000A4031092A30302C0138212821093A20383
:103B20000093A103DF91CF911F910F910895A0E021
:103B3000B0E0EDE9FDE10C944821EC01009721F49F
:103B4000CB010E946A1CB8C0FC01E60FF71F9C0164
:103B500022503109E217F30708F4ACC0D9010D91E6
:103B60001C91119706171707B0F00530110508F4DE
:103B70009FC0C80104978617970708F499C00250A0
:103B80001109061B170B019311936D937C93CF01C1
:103B90000E94FF1C8DC05B01A01AB10A4C01800E6F
:103BA000911EA091A303B091A40340E050E0E12C4A
:103BB000F12C109709F44AC0A815B905D1F56D90FC
:103BC0007C901197630182E0C80ED11CCA14DB04FB
:103BD00080F1A3014A195B096A0182E0C80ED11C79
:103BE0001296BC9012971396AC91B5E0CB16D10407
:103BF00040F0B282A38351834083D9016D937C93BB
:103C00000AC00E5F1F4FC301800F911FF9019183FE
:103C10008083EB2DFA2FE114F10431F0D7011396D4
:103C2000FC93EE93129744C0F093A403E093A30394
:103C30003FC08D919C9111974817590708F4AC012A
:103C40007D0112960D90BC91A02DB3CF8091A10360
:103C50009091A20388159905E1F446175707C8F417
:103C60008091000190910101009741F48DB79EB7BA
:103C70004091040150910501841B950BE817F90749
:103C8000C8F4F093A203E093A103F9017183608368
:103C90000FC0CB010E946A1C7C01009759F0A8015B
:103CA000BE010E94661ECE010E94FF1CC70104C017
:103CB000CE0102C080E090E0CDB7DEB7EEE00C941C
:103CC000642181E090E0F8940C948A21FB01DC01EE
:103CD00002C001900D9241505040D8F70895FB0169
:103CE000DC018D91019080190110D9F3990B089591
:103CF000FB01DC0101900D920020E1F70895FB012A
:103D0000DC014150504048F001900D920020C9F76D
:103D100001C01D9241505040E0F70895A0E0B0E08E
:103D2000E4E9FEE10C9444215C016B017A01611528
:103D3000710519F0FB0191838083E114F10429F0EE
:103D4000C7010297839708F0F1C0E5012196F501BC
:103D50001081812F90E00E949F1F892B11F05E013E
:103D6000F4CF1D3229F42196F501118101E007C03D
:103D70001B3221F4E5012296F501118100E0E114E6
:103D8000F10459F1F0E1EF16F10461F41033E1F4BC
:103D900088818F7D883569F519812296026070E1EE
:103DA000E72EF12C88E0E816F10439F12CF4F2E06A
:103DB000EF16F104C9F12AC08AE0E816F10479F09F
:103DC000E0E1EE16F10411F550E1E52EF12C812C25
:103DD000912CA12C68E0B62E2CC01033C9F23AE029
:103DE000E32EF12C4CEC842E982CA82C4CE0B42E15
:103DF00020C010E3E114F104A9F698E0E92EF12CBB
:103E0000812C912CA12C20E1B22E13C060E070E037
:103E100080E090E897010F2C000C440B550B0E949A
:103E2000172149015A0105C0812C912CA12C80E455
:103E3000B82E60E020E030E0A90127010F2C000C33
:103E4000660877081E01E0EDE10FEA3060F08FEBC5
:103E5000810F8A3110F4E9EC05C08FE9810F8A31B6
:103E600028F5E9EAE10F8E2F90E08E159F05F4F416
:103E700067FD18C082169306A406B50690F0C3012C
:103E8000B2010E9407219B01AC012E0F311D411D83
:103E9000511D213031054105F0E85F0710F461E064
:103EA00001C06FEF2196F1011081CCCF802F81707E
:103EB000C114D10471F0662329F02197F601D18352
:103EC000C08307C001FF19C02297F601D183C083C8
:103ED00014C067FF12C0811105C02FEF3FEF4FEFF5
:103EE0005FE704C020E030E040E050E882E290E08C
:103EF0009093A6038093A50316C0882341F05095A4
:103F00004095309521953F4F4F4F5F4F0CC057FF65
:103F10000AC082E290E09093A6038093A5032FEF5E
:103F20003FEF4FEF5FE7B901CA0104C060E070E006
:103F300080E090E0CDB7DEB7E2E10C946021911112
:103F40000C94CA1F803219F089508550C8F7089523
:103F5000FB01DC0102C005900D9241505040D8F7A2
:103F60000895FB01DC018D91059080190110D9F3B2
:103F7000990B0895FB01DC0105900D920020E1F7FB
:103F80000895FC0105900020E9F7809590958E0F2B
:103F90009F1F08959927882708950E940F2008F4ED
:103FA00081E00895E89409C097FB3EF490958095D0
:103FB000709561957F4F8F4F9F4F9923A9F0F92FEF
:103FC00096E9BB279395F695879577956795B7956D
:103FD000F111F8CFFAF4BB0F11F460FF1BC06F5F53
:103FE0007F4F8F4F9F4F16C0882311F096E911C065
:103FF000772321F09EE8872F762F05C0662371F086
:1040000096E8862F70E060E02AF09A95660F771F99
:10401000881FDAF7880F9695879597F90895990F75
:104020000008550FAA0BE0E8FEEF16161706E80782
:10403000F907C0F012161306E407F50798F0621BA3
:10404000730B840B950B39F40A2661F0232B242B78
:10405000252B21F408950A2609F4A140A6958FEF97
:10406000811D811D08950E9446200C94B7200E9456
:10407000A92038F00E94B02020F0952311F00C9474
:10408000A0200C94A62011240C94EB200E94C820A0
:1040900070F3959FC1F3950F50E0551F629FF0019B
:1040A000729FBB27F00DB11D639FAA27F00DB11DB4
:1040B000AA1F649F6627B00DA11D661F829F22273D
:1040C000B00DA11D621F739FB00DA11D621F839FC4
:1040D000A00D611D221F749F3327A00D611D231F9A
:1040E000849F600D211D822F762F6A2F11249F57E8
:1040F00050409AF0F1F088234AF0EE0FFF1FBB1FEB
:10410000661F771F881F91505040A9F79E3F5105A9
:1041100080F00C94A0200C94EB205F3FE4F3983ED9
:10412000D4F3869577956795B795F795E7959F5F53
:10413000C1F7FE2B880F911D9695879597F90895E5
:1041400097F99F6780E870E060E008959FEF80EC4A
:10415000089500240A9416161706180609060895ED
:1041600000240A9412161306140605060895092E53
:104170000394000C11F4882352F0BB0F40F4BF2BC2
:1041800011F460FF04C06F5F7F4F8F4F9F4F089502
:1041900057FD9058440F551F59F05F3F71F04795F8
:1041A000880F97FB991F61F09F3F79F087950895DD
:1041B000121613061406551FF2CF4695F1DF08C0FC
:1041C000161617061806991FF1CF86957105610519
:1041D00008940895E894BB2766277727CB0197F9C1
:1041E0000895F999FECF92BD81BDF89A992780B5BF
:1041F0000895262FF999FECF1FBA92BD81BD20BD2B
:104200000FB6F894FA9AF99A0FBE01960895DB0159
:104210008F939F930E943921BF91AF91A29F800DF0
:10422000911DA39F900DB29F900D11240895A1E2BE
:104230001A2EAA1BBB1BFD010DC0AA1FBB1FEE1F20
:10424000FF1FA217B307E407F50720F0A21BB30B6B
:10425000E40BF50B661F771F881F991F1A9469F7E7
:1042600060957095809590959B01AC01BD01CF0143
:1042700008950E947B21A59F900DB49F900DA49F4F
:10428000800D911D112408952F923F924F925F92BD
:104290006F927F928F929F92AF92BF92CF92DF9256
:1042A000EF92FF920F931F93CF93DF93CDB7DEB7BB
:1042B000CA1BDB0B0FB6F894DEBF0FBECDBF09944F
:1042C0002A88398848885F846E847D848C849B84A6
:1042D000AA84B984C884DF80EE80FD800C811B81B4
:1042E000AA81B981CE0FD11D0FB6F894DEBF0FBEE3
:1042F000CDBFED010895A29FB001B39FC001A39F60
:10430000700D811D1124911DB29F700D811D11240E
:10431000911D089510E0CDECD0E004C0FE010E9494
:0E432000311B2196CE3CD107C9F7F894FFCF90
:10432E000000A703800000004843000096430000F1
:10433E00C8430000FA430000164400000000580174
:10434E00981200000000AE02981200000000F80063
:10435E0000000000F800000000008F1300000000B5
:10436E008F1300000000170C981200000000681256
:10437E00381230121C120D120C12000000001C1309
:10438E009812E512C312D7126313000000008F13A8
:10439E00981200000000D10BE3055F02EB07E50564
:1043AE0000000000000000005F028F138F1300005A
:1043BE000000A0085A0742073F0B3F0ABA0A0D0A2F
:1043CE000022225C5C6208660C6E0A720D74090093
:1043DE006E756C6C00747275650066616C73650049
:1043EE004E614E00496E66696E69747900652D00E6
:1043FE0054534C323539310066756C6C006972005D
:10440E006C757800636D6400696400696E666F0098
:0C441E006461746100726573756C740059
:00000001FF
